:020000040800F2
:10000000C006002045020008D51C00088D1C000811
:10001000D11C0008AD1B00082722000800000000CA
:100020000000000000000000000000007D1E00082D
:10003000B11B000800000000511D0008951F0008BA
:100040005F0200085F0200085F0200085F0200080C
:100050005F0200085F0200085F0200085F020008FC
:100060005F0200085F0200085F0200085F020008EC
:100070005F0200085F0200085F0200085F020008DC
:100080005F0200085F0200085F0200085F020008CC
:100090005F0200085F0200085F0200085F020008BC
:1000A0005F0200085F0200085F0200085F020008AC
:1000B0005F0200085F0200085F0200085F0200089C
:1000C0005F0200085F0200085F0200085F0200088C
:1000D0005F020008012000085F0200085F020008BC
:1000E0005F0200085F0200085F0200085F0200086C
:1000F0005F0200085F0200085F0200085F0200085C
:100100005F0200085F0200085F0200085F0200084B
:100110005F0200085F0200085F0200085F0200083B
:100120005F0200085F0200085F0200085F0200082B
:100130005F0200085F0200085F0200085F0200081B
:100140005F0200085F0200085F0200085F0200080B
:100150005F0200085F0200085F0200085F020008FB
:100160005F0200085F0200085F0200085F020008EB
:100170005F0200085F0200085F0200085F020008DB
:100180005F0200085F02000800F002F800F04AF881
:100190000AA090E8000C82448344AAF10107DA45E2
:1001A00001D100F03FF8AFF2090EBAE80F0013F0EA
:1001B000010F18BFFB1A43F0010318473831000044
:1001C00058310000103A24BF78C878C1FAD85207D5
:1001D00024BF30C830C144BF04680C6070470000C1
:1001E0000023002400250026103A28BF78C1FBD840
:1001F000520728BF30C148BF0B6070471FB502F0DF
:1002000093FF00F04DFC04000020002102F084FD6B
:10021000401C60600020002102F068FDE0601FBD0E
:1002200010B510BD00F07EFE1146FFF7E7FF02F0AB
:100230002DFC01F0CFF803B4FFF7F2FF03BC02F08E
:1002400054FB00000948804709480047FEE7FEE7E5
:10025000FEE7FEE7FEE7FEE7FEE7FEE7FEE7FEE776
:1002600004480549054A064B70470000991F0008DD
:1002700089010008C0000020C0060020C002002044
:10028000C0020020704700000FB400B58DB010A967
:10029000099000910B904FF0FF300A9000200C90D5
:1002A000064878440690064878446A4607900F99B5
:1002B00009A800F09DFB0DB05DF814FB6B07000072
:1002C000830700002DE9FF5F4FF0000899461446B0
:1002D00046469169D2E901A7DDF838B00198884710
:1002E000054659EA0B0005D009E0A1690198761C82
:1002F00088470546216A284688470028F5D1681CAA
:1003000003D05FEACA7005D015E04FF0FF3004B0AB
:10031000BDE8F09F2068011D2160D0F800800AE050
:100320005FEACA7001D108F8015BA169761C0198E7
:100330007F1E88470546002F1ADD681C18D0B9F1CA
:10034000000F0DD0E81705EBD060421120F01F0020
:1003500059F822102A1A012090400142E0D107E00A
:10036000BBF1000FDCD12846216A88470028D7D08E
:10037000E16901988847BBF1000F07D1002E05DD28
:100380005FEACA7002D1002188F80010A068B84264
:1003900003DDBBF1000F03D017B16FF00100B6E72A
:1003A0003046B4E710B5203AC0F00B80B1E81850E1
:1003B000203AA0E81850B1E81850A0E81850BFF44F
:1003C000F5AF5FEA027C24BFB1E81850A0E81850EE
:1003D00044BF18C918C0BDE810405FEA827C24BF42
:1003E00051F8043B40F8043B08BF7047D20728BFD0
:1003F00031F8023B48BF11F8012B28BF20F8023B1F
:1004000048BF00F8012B70474FF000020429C0F0EC
:10041000128010F0030C00F01D83CCF1040CBCF131
:10042000020F18BF00F8012BA8BF20F8022BA1EB88
:100430000C0100F00FBB5FEAC17C24BF00F8012B68
:1004400000F8012B48BF00F8012B70474FF0013C2A
:1004500050F8042B51F8043B9A4221D1A2EB0C0333
:10046000934313EACC1317D150F8042B51F8043BF3
:100470009A4215D1A2EB0C03934313EACC130BD190
:1004800050F8042B51F8043B9A4209D1A2EB0C031B
:10049000934313EACC13DBD04FF00000704700BF4A
:1004A000D01A01BAB1FA81F101F0180122FA01F073
:1004B000CB40C1F12001DBB2C0B2C01A2CFA01F36B
:1004C000D11A914311EAC311E6D1704770477047C2
:1004D0007047704710B500F0E7FA006810BD10B51E
:1004E000044600F0E1FA046010BD00002DE9FF4F62
:1004F00006468BB00878FF2806D0491C2D2805D069
:1005000000244FF0000908E000200CE00124F8E787
:1005100009EB8903491C00EB43090878FF28F7D150
:1005200014B1C9F100008146107800252C46AA4676
:1005300029462D2801D02B2804D1521C2D2813D058
:10054000002082468B461078FF280FD04FF0000C19
:100550000A21521CA5FB017804FB018105FB0C114B
:10056000C5194BEB0104EEE70120EAE7002108463C
:100570004FF00000BAF1000F02D000EB80004008FD
:10058000C0F38157012F01DD4FF0FF370E9955EA77
:10059000040009EB01080BD04FF0020918F5FA7FAF
:1005A00016DA4FEACA70002F706008DD012007E0FC
:1005B0004FEACA70C6E900B00FB0BDE8F08F002066
:1005C000306000F071FAC0F800901821084616E07B
:1005D000B8F5FA7F18DD002F02DAF748784401E019
:1005E000F6487844D0E90010C6E9001040EACA7025
:1005F000706000F059FAC0F80090142108460FB05E
:10060000BDE8F04F02F09ABD002108464FF000000F
:10061000B8F10001099002DAC7F1000200E03A46A1
:1006200001DAC8F1000106A800F006FC06AB93E869
:10063000070003AB83E8070044F23E005BEA0401D5
:100640000090584604D144F21E012C465D460091AC
:10065000210C0904014306D10099240444EA1544FD
:100660002D041039009104F07F41014306D1009917
:10067000240244EA15642D020839009104F0704107
:10068000014306D10099240144EA15742D01091F84
:10069000009104F04041014306D10099A40044EACE
:1006A0009574AD00891E009104F00041084304D107
:1006B00000986D196441401E00904FF001033A46C6
:1006C0006846B8F1000FCDE9014503A902DD01F04C
:1006D00036F901E001F009F9BAF1000F04460D46C0
:1006E00001D084F00044002108464FF00000099931
:1006F00040F2FF77484010F00C0F07D124F0004083
:10070000284303D0C4F30A50B84212D100F0CCF908
:10071000C0F80090C4F30A50B8420AD1A8487844FF
:10072000D0E90010C6E9001004F0004108437060F1
:1007300042E7C6E900543FE72DE9FF4F1F464FF05F
:10074000000A4FF0FF38454691B0D7E90146CDF891
:100750003CA000F0A5F9C0680168405C1090B96940
:1007600012986D1C8847396A814688470028F6D15F
:10077000B9F1FF3F0AD0002E24F4D06411DDB9F1A5
:100780002B0F08D0B9F12D0F0BD102E0404615B068
:1007900013E744F48064B96912986D1C8847761E8B
:1007A0008146600504A901D52D2000E02B20002EF4
:1007B00001F1010B0DF130088DF810003FDDB9F1AA
:1007C000690F08D0B9F1490F05D0B9F16E0F02D009
:1007D000B9F14E0F1CD13B4601A8009580E85002AC
:1007E000DDE912126FF0020002F00FFDC11CCED144
:1007F0000EE0B96912986D1C884781461398761EE1
:1008000044F4007405600F98401C002E0F9016DD14
:10081000B9F1300FEDD0B9F1780F02D0B9F1580F1E
:100820000DD10F9801280AD13B46CDE90054DDE9EE
:100830001212001F029602F0E6FCC11CA7D110990B
:1008400089453ED144F0800406E01399681CAAF162
:10085000010A44F400740860B9696D1C1298761E90
:10086000884730288146F0D02BE01099894505D182
:10087000200603D4761E44F0800418E0484602F0B7
:100880002DF808B3761E0DF123018B4544F4007456
:1008900008D2A9F130000BF8010B200607D5AAF108
:1008A000010003E0200602D40AF101008246A005FF
:1008B00002D51399681C0860B96912986D1C8847A5
:1008C0008146002ED1DC53E0002E51DDB9F1650FD9
:1008D00002D0B9F1450F4BD1A00549D5B9696D1CBE
:1008E0001298761E24F440748847002E81460CDD51
:1008F0002B2804D0B9F12D0F07D144F48074B969C5
:1009000012986D1C8847761E8146E00501D52D2181
:1009100000E02B2108F8011BCDF8008021E0761EB5
:100920000DF13901884544F400740CD2A9F130006E
:1009300010F0FF0088F8000002D10099884509D91D
:1009400008F1010806E0E00501D51E4801E042F289
:100950000F708246B96912986D1C884781461398BA
:100960000560002E04DD484601F0B8FF0028D6D10E
:10097000F96912988847FF2053468BF8000088F8E1
:10098000000000200A900B9004AA0CA90AA8FFF707
:10099000ADFDA00502D46FF00100F8E614F0240FBD
:1009A00012D0E0071CD13868DDE90A12031D3B6054
:1009B0000068C0E9001213E03C2D00002E2D00005D
:1009C000F22B0000F1D8FFFF0AA9684601F0C8FE2B
:1009D000E00705D13868009A011D3960006802609F
:1009E0002846D4E60268114413780160184670471F
:1009F000D16005497944516104497944116200216B
:100A00001161114600F05EB8EDFFFFFFB30000007A
:100A1000426842B1016811F8013B23B1521EC0E99E
:100A20000012184670470121C160881E7047426855
:100A30005AB1C368016843B983688B4205D0491E27
:100A4000521CC0E90012002070474FF0FF30704781
:100A50004FF0000200B5134694469646203922BF57
:100A6000A0E80C50A0E80C50B1F12001BFF4F7AFA2
:100A7000090728BFA0E80C5048BF0CC05DF804EB84
:100A8000890028BF40F8042B08BF704748BF20F8F2
:100A9000022B11F0804F18BF00F8012B70470000A7
:100AA000004870477C000020004870475C00002030
:100AB00010B5044600F05CFA0068005D00F001002B
:100AC00010BD00002DE9F34F4FF0000A0C465646CA
:100AD0008DB001200C9001F10C000B9062690B9815
:100AE00001219047051E2DD0252D2CD0216A884745
:100AF000C0B162690B9801219047216A884700289C
:100B0000F7D16269411E0B98904700E0761CA169FD
:100B10000D988847216A88470028F7D1E1690D9828
:100B20008847DBE7A1690D988847A842074601D1AD
:100B3000761CD3E7E1690D9888477F1C02D1BAF192
:100B4000000F6FD06BE162690B9800273D46394674
:100B500090472A2804D162690B980121904701250A
:100B6000DFF8D08262690B9801219047A0F1300133
:100B70000A290AD24745E5DC07EB870100EB41076C
:100B8000303FDFD445F01005ECE7E90601D46FF003
:100B900000476C280AD04C2814D0682815D06A2841
:100BA0000DD074281CD07A281AD01DE062690B98E9
:100BB000012190476C2802D045F0040514E045F06F
:100BC00002050DE045F020050AE062690B9801215D
:100BD0009047682802D045F0080505E045F4006517
:100BE00062690B9801219047C4E9015765283DD0FF
:100BF00019DC58287AD00CDC452837D004DC2528AD
:100C000026D041289ED131E046282FD0472899D1BF
:100C10002CE05B2877D0612828D063287CD064281A
:100C200023D15AE0F6E06F2848D008DC66281DD0B2
:100C300067281BD0692821D06E2816D127E070289C
:100C400045D0732868D0752847D078280DD14DE05D
:100C5000A1690D988847252805463FF469AFE169E9
:100C60000D9888476D1C3FF46AAFD8E00D99234674
:100C70006A466FF0010002F0C4FAC5E045F040009A
:100C800023464FF000026060A80736D43EE0E80734
:100C90007FF447AF2068011D21600068290501D558
:100CA00006701BE7290701D5068017E7A90703D5BA
:100CB000F117C0E9006111E706600FE745F0400059
:100CC00023464FF008026060A80716D41EE040F6E5
:100CD0000E0125EA0100606016E045F04000234661
:100CE0004FF00A026060A80707D40FE045F040000B
:100CF0006060A80708D5234610220D996FF0010007
:100D0000AFF3008080E007E0102223460D996FF0DA
:100D10000100AFF3008077E04FF0000963284F46F1
:100D2000C8464B46CB4602D05B2806D038E0E806E2
:100D300001D40120A060012732E06269D4F80CB030
:100D40000B98012190475E2807D14FF001094946D1
:100D50006269D4F80CB00B989047216939B9002129
:100D60000A4603AB43F82120491C0829FADBD8B313
:100D7000216949B308F1010862690B980121904784
:100D80005D28F4D1B9F1000F09D0002003A951F872
:100D90002020D24341F82020401C0828F7DB03AB79
:100DA0002069002820794FEA40701ED05B46224619
:100DB000CDF80080CDE901970D9900286FF0010072
:100DC00020DAAFF300801FE0C11703AA00EBD16166
:100DD0004B1121F01F0102EB8302411A136801201D
:100DE000884003431360C7E719E00D9922460028A5
:100DF0006FF00100009702DAAFF3008004E0FFF724
:100E000061FA01E0AFF3008000280ADA401C06D145
:100E10000C9820B14FF0FF300FB0BDE8F08F504676
:100E2000FAE7E90701D10AF1010A064400200C9013
:100E300054E60000CCCCCC0C2DE9F0478146164698
:100E40008AB0354878440DC88DE80D0032487844A2
:100E5000801C03AC0DC884E80D0041F69B300844AB
:100E6000372190FBF1F290FBF1F5A5F1800501FB34
:100E700012041B3C02D56442012000E00020DFF890
:100E800098A080460027FA44AAF1BE0A0EE0E007C7
:100E90000AD03246684607EB470101230AEB81017D
:100EA00000F038FD8DE8070064107F1C002CEED1A7
:100EB000194F7F44AE3F19E0E80715D007EB041047
:100EC0000DF1180A90E80E008AE80E00C068F042A2
:100ED00001D1981908903246012306A903A800F011
:100EE00019FD03AB83E807006D10641C002DE3D1EE
:100EF0004FF0010332466946B8F1000F03A802D053
:100F000000F0DEFC01E000F005FDC9E90001C9F8D0
:100F100008200AB0BDE8F08794240000004870471C
:100F20005C0000207546FFF7F9FFAE4605006946F4
:100F3000534620F00700854618B020B5FFF790F91A
:100F4000BDE820404FF000064FF000074FF00008CA
:100F50004FF0000B21F00701AC46ACE8C009ACE84B
:100F6000C009ACE8C009ACE8C0098D467047000074
:100F700010B5FFF795FD001D10BD00BF9D1D0000C1
:100F80002DE9FF4F1F464FF03C0987B04FF000425C
:100F9000DDE9141001F10108DDF858A002EA405023
:100FA0000390002005908346054604460490B969E5
:100FB000461E08988847AAF1010A0290BAF1000F6C
:100FC0003BDD02982E2815D0102100F01FFA0028D2
:100FD0002EDB4FF0010B0599014317D0B9F1000F3B
:100FE0000BDB4A46C11700F0FEF905430C43A9F19B
:100FF000040905E0012004900BE008B145F001056B
:1010000001200590049820B9361D02E0049800B133
:10101000361FB969089808F101088847BBF1000F2D
:10102000AAF1010A0290C9D00999C1F80080C5E768
:101030000298702808D0502806D0F9690898884787
:10104000BBF1000F14D04FE0002002900120BBF153
:10105000000F049009D0B969089808F10108884781
:10106000AAF10109B9F1000F07DCF969089888476E
:101070006FF001000BB0BDE8F08F2B2804D02D28B5
:101080000CD14FF0FF300490B969089808F10108BD
:101090008847A9F10109B9F1000FE6DD411CE4D050
:1010A0000A2100F0B3F90028DFDB029908F10108FA
:1010B00001EB810100EB41000290B9690898884773
:1010C0000A2100F0A3F9099AA9F10109B9F1000F69
:1010D000C2F8008001DD0028E7DAF969089888473E
:1010E0000499029800FB016655EA040004D004F05C
:1010F0004041090002D006E0039898E0A40044EAC9
:101100009574AD00B61E04F00041080002D16D19BF
:101110006441761E159810F0240F03D04FF00B0990
:101120005C4803E04FF028096FF07D008246564589
:1011300007DAAAEB06018944B9F1410F01DD4FF04E
:10114000410901200021A9F1010200F04CF90246F9
:1011500028400B462140084301D0012100E0002136
:10116000501E029143F1FF3128402140084301D035
:10117000012000E000200299834651EA0B014FD084
:10118000002108464FF00000039900F4400039B1F7
:1011900000EB80004FF4400100EBD07001EA6000EA
:1011A0008015012802DD4FF0FF3000E013D0401C15
:1011B00036D0029860B3BBF1000F0CD14A46012033
:1011C000002100F010F928402140084301D00120FF
:1011D00000E00020E0B101204A46002100F003F9C0
:1011E000034640190A4661412D1A8C4111D3B9F1C9
:1011F000400F09DD159810F0240F02D0AAF1340633
:1012000003E0AAF1170600E0761C00254FF0004429
:1012100006E05B1E42F1FF3220EA030521EA0204E8
:10122000CAF10100B04206DA1B4903980843019055
:10123000002000900EE0039AC4F3D321E80A0A4389
:10124000164940EA44500A433146CDE90002684657
:1012500001F03AFB159810F0240F0BD01598C00739
:1012600015D13868DDE90012031D3B600068C0E954
:1012700000120CE002A8694601F072FA1598C00746
:1012800005D13868029A011D396000680260404645
:10129000F0E6000002FCFFFF0000F07F0000F03FDE
:1012A0002DE9FF4F92461D4685B04FF00041DDE924
:1012B000124BDDE914727F1E01EA4B50414940F0A8
:1012C000FF4940EA0108002122F02000492804914A
:1012D00002D04E2828D04CE03BA0012607C88DE85C
:1012E0000700A9690698641C88477F1E014606D43A
:1012F0001DF8060018B121F0200181420BD0E969E8
:1013000006988847032E34D0082E32D06FF00100A3
:1013100009B0BDE8F08F761C032E01D0082EE0D175
:10132000601CCAF80000DCE7A9690698641C8847BD
:101330007F1E2AD420F02000412826D1A9690698D2
:10134000641C88477F1E20D420F020004E281CD12A
:10135000A9690698641C88477F1E48F4002849F450
:101360008009CAF8004001D4282806D0E969069807
:1013700088475FEACB7012D022E0A9690698641C06
:1013800088477F1E01D4002803DAE9690698884758
:10139000BCE72928F1D1641CCAF80040E9E71BF03A
:1013A000240F07D028680499031D2B600068C0E94A
:1013B000001805E02868021D2A600068C0F8009047
:1013C0002046A5E70000F07F494E46494E49545952
:1013D0000000000010B50446AFF300802046BDE8D1
:1013E0001040FEF728BFB2F120030AD5C2F1200356
:1013F00001FA02F120FA03F300FA02F041EA0301D4
:10140000704700FA03F14FF0000070473A2800D20D
:10141000303820F02002412A01D3A2F1370088425F
:1014200001D34FF0FF30704720F07F4C80EA03007B
:1014300023F07F47ACEB070303F57C5300F000403B
:1014400003F1FF032DE980494FEA154B09B44FEA38
:10145000144325EA0B4E24EA03480FF2042606EB58
:10146000132749083E785FEA320203FB0667C7F597
:10147000000707FB06F64FEA54374FEAD64606F157
:10148000020607FB066CCCF1005C4FEA1C472CEA15
:10149000074C07FB06F40CFB06F504EB15464FEA78
:1014A000961634BF00204FF000404FEAD13706FBBC
:1014B00007FC4FEA1C4C0CFB0BF7D21B03FB0CF791
:1014C00061EB07010CFB0EF7B0EB074072EB174224
:1014D0000CFB08F734BFA2EB0742B2EB074261EB0B
:1014E00017414FEA0C444FEA910706FB07FC4FEA0D
:1014F0001C4C0CFB0BF7B0EBC74072EB573203FBF5
:101500000CF734BFA2EBC742B2EBC74261EB5731D5
:101510000CFB0EF7B0EBC70072EB57720CFB08F731
:1015200034BFA2EBC702B2EBC70261EB5771039F56
:101530004FEA816141EA921104EBCC044FEAD137C2
:101540004FEA826206FB07FC42EA90124FEA806093
:101550004FEA1C4C0CFB0BF7D21B03FB0CF761EBA7
:1015600007010CFB0EF7B0EB074072EB17420CFBC8
:1015700008F734BFA2EB0742B2EB074261EB174119
:101580004FEA8C554FEA910704EB9C2406FB07FCBD
:101590004FEA1C4C0CFB0BF7B0EBC74072EB573219
:1015A00003FB0CF734BFA2EBC742B2EBC74261EBBF
:1015B00057310CFB0EF7B0EBC70072EB57720CFB08
:1015C00008F734BFA2EBC702B2EBC70261EB577159
:1015D00015EB4C254FEA816141EA92114FEA826294
:1015E0004FEAD13742EA901206FB07FC44F10004AF
:1015F0004FEA80604FEA1C4C0CFB0BF7D21B03FB3D
:101600000CF761EB07010CFB0EF7B0EB074072EB38
:1016100017420CFB08F734BFA2EB0742B2EB0742BC
:1016200061EB174115EB1C154FEA813141EA9241FC
:101630004FEA823242EA90424FEA80304FEA0C761B
:1016400044F1000448EA03434EEA0B484FF0000E11
:10165000B2EB080C71EB030724BF624639464EEB30
:101660000E0E4FF0000B0018524149414BEB0B0B93
:10167000B2EB080C71EB03077BF1000B24BF624651
:1016800039464EEB0E0E4FF0000B00185241494107
:101690004BEB0B0BB2EB080C71EB03077BF1000B70
:1016A00024BF624639464EEB0E0E51EA020718BFC0
:1016B00046F0010616EB0E7655F1000254F10001DA
:1016C00003D5BDE88901BDE80088BDE88901BDE812
:1016D0000048B619524141EB0101A3F101037047E3
:1016E00080807F7E7D7C7B7A79787776767574735F
:1016F000727171706F6E6E6D6C6C6B6A6A6968681E
:10170000676666656464636362616160605F5F5EB3
:101710005E5D5D5C5C5B5B5A5A5959585857575629
:10172000565555555454535352525251515050508E
:101730004F4F4F4E4E4D4D4D4C4C4C4B4B4B4A4AE0
:101740004A49494948484847474747464646454524
:10175000454444444443434343424242424141415D
:1017600046EA0646A3F570534FEA164646EA425645
:101770004FEAD22242EA415210B54FEAD121A3F1F9
:10178000010300F02FF820F0004000F1020C00F0FF
:10179000004701EB00501146BCF5006F40EA07001E
:1017A00000D210BDBAF1000F0AD01CB503B44FF03F
:1017B00004004FF004014FF000000FBCBDE81040E2
:1017C0004FF00001BBF1010FB9BF04484FF0FF31EA
:1017D0000348002140EA070010BD00BFFFFFEF7F74
:1017E0000000F07F002B9C4630D477002BD01CB536
:1017F0004FEA370703B44FF010004FF01001BAF171
:10180000000F06D0BCF1000FDCBF40F0080040F034
:1018100008014FF000000FBCBDE810400BF1010BB8
:10182000BBF1010F08BF5FEA170722BF12F10102E7
:1018300011F101014FF0004143F1000300F00040BD
:1018400043EA00007047F9D35708D0E746EA064656
:1018500013F1400F4FEA16461FDD13F1200FDFBFD3
:1018600016430A46002120335B42BED0C3F1200755
:1018700046EA064602FA07F74FEA164646EA070620
:10188000C3F1200722FA03F201FA07F721FA03F164
:101890004FF0000342EA0702A7E746EA020646EADB
:1018A00006464FEA164646EA0106BCBF46EA064629
:1018B000360C4FF000034FF000024FF0000194E7A8
:1018C0002DE9804C9A46934670B491E8380007C8D9
:1018D00031EA400C48BF34EA430C03D5FFF7A4FDBE
:1018E000FFF780FFF0BCBDE8008C2DE9804C9A46E4
:1018F000934670B491E8380007C831EA400C48BFFD
:1019000034EA430C03D5FFF78FFDFFF729FFF0BC46
:10191000BDE8008C2DE9804C9A46934670B491E85E
:10192000380007C810F0804F08BF13F0804F03D174
:1019300000F01AF8FFF756FFF0BCBDE8008C2DE967
:10194000804C9A46934670B491E8380007C810F06E
:10195000804F08BF13F0804F03D100F005F8FFF768
:10196000FFFEF0BCBDE8008C20F07F4780EA03005A
:1019700023F07F4C07EB0C03A3F57C5300F00040F1
:10198000A3F1FE0392F0000F00F0B38095F0000F7A
:1019900000F077802DE901494FEA11404FEA1446E3
:1019A00021EA004800FB06FC24EA064708FB06F68D
:1019B00007FB08F800FB07F718EB06484CEB164C42
:1019C0004FEA124B18EB07484FEA15464CEB17400D
:1019D00022EA0B4E0BFB06FC25EA06470EFB06F639
:1019E00007FB0EFE0BFB07F71EEB064E4CEB164CEF
:1019F0004FF000061EEB074E4CEB174B18EB0B0895
:101A000040F1000018EB0E0B58EB000840F100000D
:101A10008F1A4FF000013CBFC943661B14BFB5EBE2
:101A2000040C00213CBFC943F61B4FEA17444EEAA1
:101A30008E0E27EA04454FEA1C4704FB07622CEA96
:101A4000074C05FB07F70CFB05F604FB0CFC16EB3B
:101A5000074642EB174216EB0C4642EB1C421BEBCF
:101A6000060658EB0202414146EA9E0601D5BDE852
:101A70000189B619524141EB0101A3F10103BDE80F
:101A800001894FEA14454FEA114724EA054621EA45
:101A9000074C05FB07F406FB07F70CFB06F105FBFB
:101AA0000CFC11EB074144EB17444FEA124711EBD2
:101AB0000C4144EB1C4422EA074C05FB07F206FBF1
:101AC00007F70CFB06F605FB0CFC16EB074642EB92
:101AD000174216EB0C4642EB1C456A1854F1000104
:101AE00048BF7047B619524141EB0101A3F1010310
:101AF000704795F0000F37D04FEA11424FEA144774
:101B000021EA024624EA074C02FB07F106FB07F72D
:101B10000CFB06F402FB0CFC14EB074441EB1741F1
:101B20004FEA154714EB0C4441EB1C4125EA074CE6
:101B300002FB07F506FB07F70CFB06F602FB0CFCA5
:101B400016EB074645EB174516EB0C4645EB1C42DA
:101B5000121951F1000148BF7047B619524141EBCB
:101B60000101A3F1010370474FEA14454FEA114701
:101B700024EA054621EA074C05FB07F106FB07F7B7
:101B80000CFB06F24FF0000605FB0CFC12EB0742C3
:101B900041EB174112EB0C4251EB1C4148BF70471F
:101BA000921841EB0101A3F10103704700BFFEE76A
:101BB0007047F0B50A4600210023002400BF3DE035
:101BC000012505FA01F3156805EA03049C4234D1A6
:101BD00005684F000326BE40B543056015794E00E9
:101BE000B5400668354305601579012D02D0157999
:101BF000022D16D185684F000326BE40B54385608F
:101C000055794E00B54086683543856045680126A4
:101C10008E40B5434560456896798E40B6B23543EF
:101C20004560C5684F000326BE40B543C560D57901
:101C30004E00B540C6683543C560491C1029BFD366
:101C4000F0BDF0B5002300244D07ED0E02FA05F3B8
:101C5000CE1000F1200555F826504E07F70E0F263E
:101C6000BE40B543CF1000F1200646F82750CE10F5
:101C700000F1200555F8265045EA0304CE1000F186
:101C8000200545F82640F0BD0183704700BFFEE700
:101C90001CB50121202000F05DF84FF4C0600090D9
:101CA00001208DF8040000208DF8060003208DF837
:101CB000050001208DF8070069460448FFF779FF09
:101CC0004FF4C0610148FFF7DFFF1CBD0014024064
:101CD00000BFFEE77047000070B5002100230F220F
:101CE000C4781CB3174C246804F4E064C4F5E064C1
:101CF000C4F30721C1F10404E3B20A4144789C40D3
:101D0000E1B28478144021430C07210E0E4C057873
:101D10006155047804F01F050124AC4005786D116D
:101D2000AD0005F1E025C5F8004109E0047804F0B4
:101D30001F050124AC40054D0678761145F8264074
:101D400070BD00000CED00E000E400E080E100E088
:101D50007047000029B1064A12680243044B1A601A
:101D600004E0034A12688243014B1A607047000086
:101D70003038024029B1064A12680243044B1A6007
:101D800004E0034A12688243014B1A607047000066
:101D900044380240F0B5002100220024022500262C
:101DA0000223324F3F6807F00C0121B1042905D00E
:101DB000082937D105E02E4F076036E02D4F076028
:101DC00033E02A4F3F1F3F68C7F38056274F3F1F1E
:101DD0003F6807F03F036EB1264FB7FBF3F7DFF81C
:101DE0008CC0ACF1040CDCF800C0CCF3881C07FB01
:101DF0000CF40CE01E4FB7FBF3F7DFF870C0ACF14A
:101E0000040CDCF800C0CCF3881C07FB0CF4174F63
:101E10003F1F3F68C7F301477F1C7D00B4FBF5F708
:101E2000076002E0124F076000BF00BF0F4F3F681E
:101E300007F0F0010909104F7A5C0768D740476046
:101E40000A4F3F6807F4E051890A0B4F7A5C4768F4
:101E5000D7408760054F3F6807F46041490B064F44
:101E60007A5C4768D740C760F0BD00000838024080
:101E70000024F40000127A001A00002070470000CD
:101E80000CB50020019000903448006840F4803088
:101E90003249086000BF3148006800F4003000900B
:101EA0000198401C0190009818B90198B0F5A04F16
:101EB000F1D12A48006800F4003010B101200090F0
:101EC00001E0002000900098012846D123484030CE
:101ED000006840F080502149403108602048006887
:101EE00040F440401E4908601C48083000681B4907
:101EF000083108600846006840F400400860084661
:101F0000006840F4A05008601648091F0860081FC8
:101F1000006840F08070091F086000BF0F4800682B
:101F200000F000700028F9D040F205700E490860FA
:101F30000A480830006820F00300084908310860AA
:101F40000846006840F00200086000BF03480830FF
:101F5000006800F00C000828F8D10CBD00380240E1
:101F60000070004008544007003C0240042808D19B
:101F70004FF0E021096941F004014FF0E0221161C6
:101F800007E04FF0E021096921F004014FF0E02261
:101F9000116170477047000010B51548006840F4A3
:101FA0007000134908601348006840F001001149AF
:101FB000086000200F49083108600E4800680E498B
:101FC00008400C4908600D48091D0860081F00689A
:101FD00020F48020091F0860002006490C310860A9
:101FE000FFF74EFF4FF0006001498039086010BDD7
:101FF00088ED00E000380240FFFFF6FE10300024BC
:1020000010B540F22551164800F04BF830B3144893
:1020100000F000F9C4B2232C0ED11248007858B950
:1020200023201149114A1278885401200D49087063
:1020300000200E49087011E00A48007870B90A487B
:102040000A490978445409480078401C0749087037
:10205000084600781E2801DB0020087010BD000033
:1020600000100140180000203C0000201900002052
:1020700021B1828942F40052828104E082894DF6C6
:10208000FF731A408281704702460020B1F5007F3D
:1020900000D100BF13880B400BB1012000E00020ED
:1020A000704770B50246002400230025002040F64A
:1020B0006A16B14200D100BFC1F3421501F01F03FF
:1020C000012606FA03F3012D02D19689334006E07A
:1020D000022D02D1168A334001E0968A33400C1259
:1020E000012606FA04F41688344013B10CB101201D
:1020F00000E0002070BDF0B5034600240026002556
:10210000002040F66A17B94200D100BF1846C1F35B
:10211000421401F01F06012707FA06F5012C01D130
:102120000C3004E0022C01D1103000E014301AB160
:1021300007682F43076002E00768AF430760F0BD00
:102140002DE9FF4705460E460024A14600BFA046E4
:10215000B08900B100BF2C8A24F44054F0880443B5
:102160002C82AC8941F20C608443B08831890843E9
:10217000718908430443AC81AC8A24F44074B0896B
:102180000443AC826846FFF705FE2048854202D032
:102190001F48854202D1DDF80C9001E0DDF808907F
:1021A000A88900F4004040B109EBC90000EB091018
:1021B00031684900B0FBF1F707E009EBC90000EB1B
:1021C000091031688900B0FBF1F76420B7FBF0F02B
:1021D00004012009642101FB1078A88900F4004063
:1021E00040B1322000EBC800B0FBF1F000F0070076
:1021F000044308E0322000EB08106421B0FBF1F04A
:1022000000F00F0004432C81BDE8FF87001001405F
:102210000014014001468888C0F308007047C1F3EC
:1022200008028280704700BFFEE74100080218BF25
:1022300004200A0E18BF40F001004FF07F4232EA3E
:10224000010108BF40F00200012808BF05207047C7
:1022500030B52DED048B81B0B0EE408AF0EE608A8F
:102260006A4651EC180B00F063FB00989FED329B1F
:102270007E300090002821DC53EC192B51EC180B18
:1022800000F0A6FD1AD0002140F608004FF0000033
:10229000044651EC180B00F055FD08EE100A40F60C
:1022A000080004EA00014FF00000B5EEC08AF1EE2C
:1022B00010FA04BF0220FEF712F92DE00098FF2863
:1022C00030DB002108464FF0000000F4400553ECDD
:1022D000192B51EC180B00F0F1FE8CBF00240124E7
:1022E0000220FEF7FCF89FED168A4DB1002C0CBFC2
:1022F0004FF400004FF48000A84218BF9FED118AF0
:10230000042108464FF00000002C01BFB1EE480A3E
:1023100001B0BDEC048B30BDB0EE480A01B0BDEC9D
:10232000048B30BD51EC180B00F00CFD01B000EE39
:10233000100ABDEC048B30BD00000000000000005E
:102340000000807FFFFF7F7F10EE101A08B5444A1F
:102350006846B2EB410F28D94FF0E640B0EB410F91
:1023600094BF00204FF0FF3000900098002861DB00
:1023700060EE000A10F0010F45D010F0020FDFED03
:10238000391A9FED391A00EEE11ADFED381A40EEE6
:10239000811A21EEA01AF0EE400A40EE010A08BFB1
:1023A000F1EE600AB0EE600A08BD314B21F0004248
:1023B00093423CD911F0004FDFED2E0A20EE201A97
:1023C000DFED2D0A19BF31EE601A71EE200A31EEF1
:1023D000201A71EE600ABDEEE01A11EE100A9FEDB0
:1023E000271A00F0030000EEC10A9FED251A0090A5
:1023F00000EEC10A9FED231A00EEC10A9FED221ADA
:1024000000EEC10AB1E79FED211A9FED210A10F0FD
:10241000020F00EE810A9FED1F1A00EE801AB7EE40
:10242000000A00EE810A18BFB1EE400A08BD00F0B4
:10243000A1F99AE710EE100A4000B0F17F4F3CBFBF
:10244000B7EE000A08BD07D14FF00100FEF747F8CC
:10245000BDE8084000F074B9BDE8084000F06CB970
:10246000B61F927E336D4C39DA82083CA0AA2ABE90
:10247000490E494683F9223F0000004B0000C93F46
:1024800000A0FD390020A2331A61342CB93AB2BA47
:10249000CA9F2A3DDDFFFFBE30B540F2FF742DED2F
:1024A000048BF0EE608A18EE901A85B0B0EE408A88
:1024B0009FED2B9B05468DED008B34EA115147D0E3
:1024C00053EC192B51EC180B00F082FC40D02A463B
:1024D00051EC180B00F067FE41EC180B18EE900A57
:1024E0008DED008B34EA10501CD053EC192B51ECBD
:1024F000180B00F06DFC2BD10220FDF7F0FF00F06F
:102500000BF910EE901A18EE900A8DED020B8DED7E
:10251000008B61F31E0003909DED020B05B0BDEC36
:10252000048B30BD0220FDF7DAFF00F0E5F810EE75
:10253000901A18EE900A8DED020B8DED008B61F371
:102540001E0003909DED020B05B0BDEC048B30BD69
:1025500005B0B0EE480AF0EE680ABDEC048B30BD61
:10256000000000000000000000B510EE101A2DED74
:10257000028B81B0524A6846B2EB410F2ED94FF020
:10258000E640B0EB410F94BF00204FF0FF300090C9
:102590000098B0EE408A00286ADB10F0010F4BD0A3
:1025A00068EE080A9FED471A9FED470A00EE810A80
:1025B0009FED461A10F0020F00EE801AB7EE000AE7
:1025C00000EE810A02BF01B0BDEC028B00BD00BF6E
:1025D00001B0B1EE400ABDEC028B00BD3C4B21F0D6
:1025E0000042934241D911F0004FDFED3A0A20EE4C
:1025F000201ADFED390A19BF31EE601A71EE200A98
:1026000031EE201A71EE600ABDEEE01A11EE100AEA
:102610009FED321A00F0030000EEC10A9FED301A60
:10262000009000EEC10A9FED2F1A00EEC10A9FED47
:102630002E1A00EEC10AABE728EE080A9FED2B1A0E
:10264000DFED2B0A10F0020F40EE410A9FED291A30
:1026500000EE201A61EE000AB0EE480A08EE200AE9
:10266000B6D101B0BDEC028B00BD00F083F88FE75E
:1026700018EE100A4000B0F17F4F0DD218EE100A8C
:10268000FFF7D3FD042808BF00F062F8B0EE480A57
:1026900001B0BDEC028B00BD09D10120FDF71FFF89
:1026A00001B0BDEC028B5DF804EB00F049B801B05D
:1026B000B0EE480ABDEC028B5DF804EB00F03CB8CC
:1026C000B61F927EB93AB2BACA9F2A3DDDFFFFBE5D
:1026D000490E494683F9223F0000004B0000C93FE4
:1026E00000A0FD390020A2331A61342C336D4C391F
:1026F000DA82083CA0AA2ABE9FED050B10B553EC68
:10270000102B51EC100B00F0DBFB41EC100B10BD5B
:1027100000000000000000709FED050B10B553ECA9
:10272000102B51EC100B00F0CBFB41EC100B10BD4B
:10273000000000000000001030EE000A70470000AA
:10274000DFED020A80EEA00A7047000000000000E2
:102750009FED020A20EE000A704700000000001002
:1027600010B5044691ED000BFFF772FD84ED000AF1
:1027700010BD00002DE9F0014FF07F42B2EB410F98
:102780009FBF4FF0FF310160BDE8F00170474FF08F
:10279000004242EA0123C1F3C752783A551112F0C0
:1027A0001F0C434CCCF120067C44C1F3C752A2F16C
:1027B00078024FEA621204EB820254F8254008BF07
:1027C000D2E9015612D0556804FA0CF425FA06F73E
:1027D0003C43976805FA0CF527FA06F8D26807FA21
:1027E0000CFCF24045EA08054CEA0206A4FB034C47
:1027F000A5FB0352A6FB03631D449D4234BF012683
:1028000000261319334416B1934202D903E09342D0
:1028100001D2012200E00022624402F1200C920663
:10282000DC0C42EA443200EE102A5B03DFED210AA1
:10283000F8EEC01A00EE103A4FEA9C1C11F0004F5F
:10284000B8EE400AC0F800C020EE201A00EE105A80
:10285000DFED190AB8EE400A20EE200A71EE810A77
:1028600070EE800A10EE902A02F500626FF30B0200
:1028700000EE902A70EEE11A31EEC11ADFED101A67
:1028800030EE411A9FED0D0A20EE800A01EE210A7A
:102890009FED0C1A00EE810A04BFBDE8F0017047FD
:1028A000CCF180510160BDE8F001B1EE400A704703
:1028B000940A0000000000360000802C22AAFD29A6
:1028C000DB0FC92F0000C92F10B5044690ED000B97
:1028D0000846FFF7E1FD84ED000B10BD30380A28F3
:1028E00001D20120704700207047014600BF7047A9
:1028F00010B504466FF00400FFF738FBE11704EB56
:102900005171C1F3C701074A11701046007800EBFE
:102910004001C1EBC0104FF6FF7101EAC00002494F
:10292000088010BD100000201200002000000000F0
:1029300010B582B01446CDE900010023009A23604F
:10294000194B21F0004098422ADA024328D0B0F512
:10295000801FA8BF226810DA9FED150B53EC102BD7
:102960009DED000B51EC100B00F0AAFACDE900012F
:102970006FF0350221F0004022600F4B6FF31E51C3
:1029800003EB20501044206041F0FF5040F0005015
:1029900001909DED000B00BF02B051EC100B10BD7B
:1029A0009DED000BF8E700000000F07F0000000044
:1029B000000000000000504302FCFFFF00B587B09C
:1029C00001AB02AA03A904A800F0F6F898B10DA182
:1029D00004A8FDF73BFD70B99DED030A0A4880EDA0
:1029E000000A9DED020A094880ED000A9DED010AEA
:1029F000074880ED000A002004900590069007B07B
:102A000000BD0000504944000000002004000020E8
:102A10000800002010B51A4890ED000AFFF7A4FD49
:102A2000184880ED000A164890ED000AFFF78CFC6C
:102A3000144880ED010A1248D0ED000AB0EE001AE9
:102A400060EE810AB0EE600AFFF77EFC0D4880ED73
:102A5000020A0B4890ED000AFFF776FCF0EE000A40
:102A600020EE200A074880ED030A054890ED000A91
:102A7000DFED050A30EE200A80ED000A10BD0000EF
:102A80000C0000202C00002045D8203EA820FFF795
:102A90002FFFFFF7FDF84FF4E13000F0BBF805E041
:102AA00000F006F8FFF7B6FFFFF788FFF8E7000031
:102AB00000B599B02AA003C8CDE917012AA103C91E
:102AC000CDE915012AA103C9CDE913012AA103C942
:102AD000CDE9110124222AA108A8FDF763FC3148A1
:102AE00090ED000A8DED010A90ED010A8DED020ACC
:102AF00090ED020A8DED030A90ED030A8DED040AB4
:102B0000294890ED000A8DED050A284890ED000A4D
:102B10008DED060A264890ED000A8DED070A062283
:102B200017A9244800F0CCF8232208A9214800F076
:102B3000C7F8062215A91F4800F0C2F8062213A9FB
:102B40001C4800F0BDF81C2201A91A4800F0B8F892
:102B5000062211A9174800F0B3F819B000BD000013
:102B6000414142424343000043434242414100004D
:102B70004444454546460000464645454444000019
:102B800073696E2878292C636F732878292C636FFA
:102B900073283278292C32636F732878292C502CB3
:102BA000492C44002C0000200000002004000020DC
:102BB00008000020001001402DE9FC4104460D46AC
:102BC00016461F464FF000080C480078012812D125
:102BD0002B4622460AA10E48CDE90067FDF754FBBB
:102BE000042801D14FF001081E210948FDF70CFC13
:102BF0000020024908704046BDE8FC811800002012
:102C00002533733D25662C25662C256623000000A0
:102C10003C00002010B588B0044601210846FFF7AB
:102C200099F801211020FFF7A5F807220921224871
:102C3000FFF707F807220A211F48FFF702F84FF4B1
:102C4000C060069002208DF81C008DF81D00002049
:102C50008DF81E0001208DF81F0006A91648FEF70A
:102C6000A8FF02940020ADF80C00ADF80E00ADF8FE
:102C70001000ADF814000C20ADF8120002A90F48A6
:102C8000FFF75EFA01210D48FFF7F2F9012240F249
:102C900025510A48FFF72FFA25208DF8040003205C
:102CA0008DF805008DF8060001208DF8070001A8B9
:102CB000FFF712F808B010BD0000024000100140FC
:102CC00070B506460C4615460BE000BF4021304665
:102CD000FFF7DAF90028F9D021783046FFF79FFA9C
:102CE000641C281EA5F10105EFD170BD10B50029A7
:102CF0000AD00878002807D005487844FDF7A6FBDD
:102D0000002801D0002010BD0248784410BD00000A
:102D10002A0600002206000010B500290AD0087813
:102D2000002807D005487844FDF790FB002801D023
:102D3000002010BD0248784410BD00001A060000B3
:102D40001206000021F00042A2F16052B2F5801F8D
:102D500001F0004328BFD2F17F6C0BD95FEA001C61
:102D600043EAC20242EB507018BF704728BF20F000
:102D700001007047B2F5801FBCBF184670474FEA8C
:102D8000410C1CF5001F02D2084600F0D2B970B504
:102D900000F040F900000089FFF7F6BF4FF0004057
:102DA000A0F580007047000002494FF0000000F0DD
:102DB000C8B900BF0000F87F491058BFC1F14041B9
:102DC0005B1058BFC3F140438B42EFF30080704764
:102DD00051EA030C17D41CF5801F58BFBCF5801FA7
:102DE00000F10680994218BF704708BF90427047B3
:102DF00007D711F5801F58BF13F5801F19D49942CA
:102E00007047894270471CF5801F08D5BCF5801FAC
:102E1000F7D58B4218BF704708BF824270474FF406
:102E2000001C1CEB410F38BF1CEB430F01D28B423F
:102E3000704770B500F0EEF8922449004FF0005151
:102E40004FF08053FFF7B8BF51EA030C17D41CF5BD
:102E5000801F58BFBCF5801F00F10680994218BF43
:102E6000704708BF9042704707D711F5801F58BFC1
:102E700013F5801F19D499427047894270471CF599
:102E8000801F08D5BCF5801FF7D58B4218BF70474F
:102E900008BF824270474FF4001C1CEB410F38BF43
:102EA0001CEB430F01D28B42704770B500F0B2F8B3
:102EB000922449004FF000514FF08053FFF77CBF40
:102EC000DFF848C170B51CEA111E1EBF1CEA1315BD
:102ED0009EEA0C0F95EA0C0F00F06F8081EA030464
:102EE00023EA4C134EEAD47E21EA4C1141F48011BE
:102EF00043F48013AE44A1FB024CA0FB0365AEF18A
:102F00007F7E361955EB0C05A1FB034C4CF10003F9
:102F1000A0FB021C16EB0C06654153F100030942AD
:102F200018BF46F0010613F4007F0BD14FEA0331BE
:102F30004FEA0530340341EA155140EA16506FF06C
:102F400003020AE04FEAC3214FEAC520F40241EA36
:102F5000555140EA56506FF0020202EB2E4201EB4F
:102F6000025585EACE710AD05FEA440C18BF24F0FE
:102F7000004450F1000041F1000120EAD47040F219
:102F8000FE7C624500D270BDA84214BF4FF0804461
:102F90004FF04044002E08BF0024BEF1806FA8BF50
:102FA000A1F1C041BDE8704080F282804FF0000086
:102FB00001F1C04101F0004170479EEA0C0F0CEA9C
:102FC000131518BF95EA0C0F06D04FF0000081EAE8
:102FD000030E0EF0004170BD00F01CF88900013EA8
:102FE00000F007B800F009B84FEA430C5FEA5C5CF8
:102FF00008D081EA030100F05BB84FEA410C5FEAB8
:103000005C5CF6D14FF00000014970470000FF07FB
:103010000000F87F0EF1020E2EF0030E5EF8046B36
:10302000364205D4012A43EB030515F5001F12D8DB
:10303000012841EB010C1CF5001F0CD80ED14FEA02
:10304000D17C15F5001F0CEB4C0C0CF1020C08BFE9
:103050004CEBD37C04E04FF0080C01E04FEAD37C4A
:103060000CEB4C0526FA05F606F00706B6F1040C43
:1030700006D20EEB860CBDE870404CF0010C6047A8
:10308000DFE80CF0090B02024FF000414FF00000A6
:10309000A1F5002170BD19461046012851EB01042D
:1030A00018BFD4F5001484BF002001F0004170BDAA
:1030B0000808A0F500114FEA3101704753EA010CEE
:1030C00017D41CF5801F58BFBCF5801F00F1068087
:1030D0008B4218BF704708BF8242704707D713F56D
:1030E000801F58BF11F5801F19D48B4270479B4237
:1030F00070471CF5801F08D5BCF5801FF7D5994295
:1031000018BF704708BF904270474FF4001C1CEB7B
:10311000430F38BF1CEB410F01D2994270470FB4E7
:103120000CBC03BCFFF7C1BE4FF04070E1EE100ACB
:103130007047FF2141EAD050C00570474FF00000B2
:1031400070470CF00F03092B08BF082000F05F80C8
:103150000A2B0BD0082B18BF704708BF1CF0400F7C
:103160000AD04FF000004FF0000170471CF0400FF4
:1031700018BF4FF0004070471CF0100F08D020F02F
:10318000704300F07F4242EAD3014FEA4370704738
:1031900000F0604021F07F4242EA000201F07F40EF
:1031A00040EA727070474FF0FF0C4CF4E06C1CEA80
:1031B00011531CBF9CEA030C9445C2BFDA4201EBD9
:1031C00002517047002B0DD0BCF1000F0FD0002A28
:1031D00001F00041A4BF41F0E04141F07F614FF0B8
:1031E0000000704701F000414FF00000704750EAC6
:1031F00001334FF09B0C18BF4CF0806C7FF4D4ADC2
:103200007047FDF799BAFDF7BBBEFEF749B81CF44D
:10321000801F11D01CF4E02F03D06FEACC3149009D
:1032200070474FF04050EFF3008222F0704242EAC4
:10323000000282F3008870474FF0000070470000E2
:10324000000000006E83F9A22915444ED15727FCD7
:10325000C0DD34F5999562DB4190433CAB6351FE90
:1032600002400000000000A0000000000540000037
:10327000000000C8000000000C4000000000409C5E
:1032800000000000194000000020BCBE000000004B
:1032900034400000BFC91B8E00000004B540000090
:1032A000504BCFD06607E2CF010000006C41000018
:1032B0003E8251AADFEEA73401000000D94200008F
:1032C000DCB5A0E23A301F97FFFFFFFFB4450000D6
:1032D000FD25A0C8E9A3C14FFFFFFFFFFF3F00008E
:1032E0000000008000000000FF3F000000000080A0
:1032F0000000000050340008000000202C000000F6
:10330000C40100087C3400082C0000209406000052
:10331000E0010008000000000000F07FFFFFFFFF59
:10332000FFFFEF7F1C00000043000000F8FFFFFFDD
:103330000C0000000E0000000F0000002E00000036
:103340001001000043000000F8FFFFFF0040404074
:103350004040404040404141414141404040404068
:103360004040404040404040404040404005020214
:1033700002020202020202020202020202202020D3
:10338000202020202020200202020202020290902F
:10339000909090901010101010101010101010102D
:1033A0001010101010101010020202020202888881
:1033B000888888880808080808080808080808088D
:1033C0000808080808080808020202024000000075
:1033D00000000000000000000000000000000000ED
:1033E00000000000000000000000000000000000DD
:1033F00000000000000000000000000000000000CD
:1034000000000000000000000000000000000000BC
:1034100000000000000000000000000000000000AC
:10342000000000000000000000000000000000009C
:10343000000000000000000000000000000000008C
:10344000000000000000000000000000000000007C
:10345000000000000000000000000000000000006C
:103460000000000000000000000000000000010259
:0C34700003040102030406070809000021
:040000050800018965
:00000001FF
