:020000040800F2
:10000000D8060020E9010008C51C0008711C000882
:10001000C11C0008511B0008D3210008000000008B
:10002000000000000000000000000000311E000879
:10003000551B000800000000391D0008451F00087E
:10004000030200080302000803020008030200087C
:10005000030200080302000803020008030200086C
:10006000030200080302000803020008030200085C
:10007000030200080302000803020008030200084C
:10008000030200080302000803020008030200083C
:10009000030200080302000803020008030200082C
:1000A000030200080302000803020008030200081C
:1000B000030200080302000803020008030200080C
:1000C00003020008030200080302000803020008FC
:1000D00003020008A91F0008030200080302000829
:1000E00003020008030200080302000803020008DC
:1000F00003020008030200080302000803020008CC
:1001000003020008030200080302000803020008BB
:1001100003020008030200080302000803020008AB
:10012000030200080302000803020008030200089B
:1001300000F002F800F048F80AA090E8000C8244B1
:100140008344AAF10107DA4501D100F03DF8AFF28E
:10015000090EBAE80F0013F0010F18BFFB1A43F0A5
:1001600001031847E034000000350000103A24BFB6
:1001700078C878C1FAD8520724BF30C830C144BF0C
:1001800004680C607047000000230024002500264E
:10019000103A28BF78C1FBD8520728BF30C148BFEA
:1001A0000B6070471FB500F04DFC040000200021DB
:1001B00002F002FD401C60600020002102F0E6FC1D
:1001C000E0601FBD10B510BD00F07EFE1146FFF7C8
:1001D000E9FF02F0FBFA01F0CFF803B4FFF7F2FFFA
:1001E00003BC02F053F90000094880470948004762
:1001F000FEE7FEE7FEE7FEE7FEE7FEE7FEE7FEE7D7
:10020000FEE7FEE704480549054A064B7047000033
:10021000491F000831010008D8000020D80600203E
:10022000D8020020D8020020704700000FB400B5AB
:100230008DB010A9099000910B904FF0FF300A90FB
:1002400000200C90064878440690064878446A4698
:1002500007900F9909A800F09DFB0DB05DF814FB05
:100260006B070000830700002DE9FF5F4FF00008D7
:100270009946144646469169D2E901A7DDF838B09F
:1002800001988847054659EA0B0005D009E0A169A5
:100290000198761C88470546216A28468847002829
:1002A000F5D1681C03D05FEACA7005D015E04FF0A5
:1002B000FF3004B0BDE8F09F2068011D2160D0F838
:1002C00000800AE05FEACA7001D108F8015BA16909
:1002D000761C01987F1E88470546002F1ADD681C92
:1002E00018D0B9F1000F0DD0E81705EBD06042111E
:1002F00020F01F0059F822102A1A012090400142D4
:10030000E0D107E0BBF1000FDCD12846216A884725
:100310000028D7D0E16901988847BBF1000F07D1C9
:10032000002E05DD5FEACA7002D1002188F80010B6
:10033000A068B84203DDBBF1000F03D017B16FF026
:100340000100B6E73046B4E710B5203AC0F00B80A4
:10035000B1E81850203AA0E81850B1E81850A0E8C9
:100360001850BFF4F5AF5FEA027C24BFB1E8185023
:10037000A0E8185044BF18C918C0BDE810405FEA93
:10038000827C24BF51F8043B40F8043B08BF70470F
:10039000D20728BF31F8023B48BF11F8012B28BF14
:1003A00020F8023B48BF00F8012B70474FF00002D5
:1003B0000429C0F0128010F0030C00F01D83CCF172
:1003C000040CBCF1020F18BF00F8012BA8BF20F8E5
:1003D000022BA1EB0C0100F00FBB5FEAC17C24BF34
:1003E00000F8012B00F8012B48BF00F8012B7047E3
:1003F0004FF0013C50F8042B51F8043B9A4221D1B4
:10040000A2EB0C03934313EACC1317D150F8042B3F
:1004100051F8043B9A4215D1A2EB0C03934313EA23
:10042000CC130BD150F8042B51F8043B9A4209D15C
:10043000A2EB0C03934313EACC13DBD04FF0000084
:10044000704700BFD01A01BAB1FA81F101F018016A
:1004500022FA01F0CB40C1F12001DBB2C0B2C01AD8
:100460002CFA01F3D11A914311EAC311E6D1704776
:10047000704770477047704710B500F0E7FA0068A2
:1004800010BD10B5044600F0E1FA046010BD000094
:100490002DE9FF4F06468BB00878FF2806D0491C8F
:1004A0002D2805D000244FF0000908E000200CE0C2
:1004B0000124F8E709EB8903491C00EB430908789C
:1004C000FF28F7D114B1C9F100008146107800254A
:1004D0002C46AA4629462D2801D02B2804D1521C8F
:1004E0002D2813D0002082468B461078FF280FD08D
:1004F0004FF0000C0A21521CA5FB017804FB01817E
:1005000005FB0C11C5194BEB0104EEE70120EAE7EE
:10051000002108464FF00000BAF1000F02D000EBB6
:1005200080004008C0F38157012F01DD4FF0FF37F5
:100530000E9955EA040009EB01080BD04FF00209AF
:1005400018F5FA7F16DA4FEACA70002F706008DDDE
:10055000012007E04FEACA70C6E900B00FB0BDE85D
:10056000F08F0020306000F071FAC0F80090182180
:10057000084616E0B8F5FA7F18DD002F02DAF748D2
:10058000784401E0F6487844D0E90010C6E900104C
:1005900040EACA70706000F059FAC0F80090142167
:1005A00008460FB0BDE8F04F02F04BBF00210846EF
:1005B0004FF00000B8F10001099002DAC7F1000223
:1005C00000E03A4601DAC8F1000106A800F006FC96
:1005D00006AB93E8070003AB83E8070044F23E0054
:1005E0005BEA04010090584604D144F21E012C46F7
:1005F0005D460091210C0904014306D100992404B1
:1006000044EA15442D041039009104F07F41014360
:1006100006D10099240244EA15642D02083900919C
:1006200004F07041014306D10099240144EA157495
:100630002D01091F009104F04041014306D10099AA
:10064000A40044EA9574AD00891E009104F00041B5
:10065000084304D100986D196441401E00904FF08A
:1006600001033A466846B8F1000FCDE9014503A9F8
:1006700002DD01F036F901E001F009F9BAF1000FED
:1006800004460D4601D084F00044002108464FF096
:100690000000099940F2FF77484010F00C0F07D195
:1006A00024F00040284303D0C4F30A50B84212D1CA
:1006B00000F0CCF9C0F80090C4F30A50B8420AD157
:1006C000A8487844D0E90010C6E9001004F00041C1
:1006D0000843706042E7C6E900543FE72DE9FF4F49
:1006E0001F464FF0000A4FF0FF38454691B0D7E95A
:1006F0000146CDF83CA000F0A5F9C0680168405C57
:100700001090B96912986D1C8847396A81468847EC
:100710000028F6D1B9F1FF3F0AD0002E24F4D064AE
:1007200011DDB9F12B0F08D0B9F12D0F0BD102E07B
:10073000404615B013E744F48064B96912986D1C03
:100740008847761E8146600504A901D52D2000E06A
:100750002B20002E01F1010B0DF130088DF8100057
:100760003FDDB9F1690F08D0B9F1490F05D0B9F1F2
:100770006E0F02D0B9F14E0F1CD13B4601A8009577
:1007800080E85002DDE912126FF0020002F0E6FE8E
:10079000C11CCED10EE0B96912986D1C8847814604
:1007A0001398761E44F4007405600F98401C002EC8
:1007B0000F9016DDB9F1300FEDD0B9F1780F02D0FE
:1007C000B9F1580F0DD10F9801280AD13B46CDE958
:1007D0000054DDE91212001F029602F0BDFEC11C9A
:1007E000A7D1109989453ED144F0800406E01399C1
:1007F000681CAAF1010A44F400740860B9696D1C10
:100800001298761E884730288146F0D02BE0109948
:10081000894505D1200603D4761E44F0800418E0F3
:10082000484601F02CFE08B3761E0DF123018B45DE
:1008300044F4007408D2A9F130000BF8010B200633
:1008400007D5AAF1010003E0200602D40AF1010055
:100850008246A00502D51399681C0860B9691298F0
:100860006D1C88478146002ED1DC53E0002E51DDFF
:10087000B9F1650F02D0B9F1450F4BD1A00549D5AB
:10088000B9696D1C1298761E24F440748847002EB6
:1008900081460CDD2B2804D0B9F12D0F07D144F48B
:1008A0008074B96912986D1C8847761E8146E005F0
:1008B00001D52D2100E02B2108F8011BCDF8008087
:1008C00021E0761E0DF13901884544F400740CD204
:1008D000A9F1300010F0FF0088F8000002D1009963
:1008E000884509D908F1010806E0E00501D51E4850
:1008F00001E042F20F708246B96912986D1C884778
:10090000814613980560002E04DD484601F0B7FDCE
:100910000028D6D1F96912988847FF2053468BF8F2
:10092000000088F8000000200A900B9004AA0CA98F
:100930000AA8FFF7ADFDA00502D46FF00100F8E6AC
:1009400014F0240F12D0E0071CD13868DDE90A1238
:10095000031D3B600068C0E9001213E0E8300000AE
:10096000DA3000009E2F0000F1D8FFFF0AA9684688
:1009700001F060FCE00705D13868009A011D39607C
:10098000006802602846D4E60268114413780160CA
:1009900018467047D160054979445161044979444A
:1009A000116200211161114600F05EB8EDFFFFFFFA
:1009B000B3000000426842B1016811F8013B23B165
:1009C000521EC0E90012184670470121C160881EFE
:1009D000704742685AB1C368016843B983688B4263
:1009E00005D0491E521CC0E90012002070474FF08C
:1009F000FF3070474FF0000200B51346944696460C
:100A0000203922BFA0E80C50A0E80C50B1F1200121
:100A1000BFF4F7AF090728BFA0E80C5048BF0CC0CF
:100A20005DF804EB890028BF40F8042B08BF70472D
:100A300048BF20F8022B11F0804F18BF00F8012B9F
:100A4000704700000048704794000020004870473D
:100A50007400002010B5044600F05CFA0068005DE8
:100A600000F0010010BD00002DE9F34F4FF0000A27
:100A70000C4656468DB001200C9001F10C000B90F5
:100A800062690B9801219047051E2DD0252D2CD091
:100A9000216A8847C0B162690B9801219047216A99
:100AA00088470028F7D16269411E0B98904700E003
:100AB000761CA1690D988847216A88470028F7D1DC
:100AC000E1690D988847DBE7A1690D988847A8423E
:100AD000074601D1761CD3E7E1690D9888477F1C52
:100AE00002D1BAF1000F6FD06BE162690B98002759
:100AF0003D46394690472A2804D162690B98012166
:100B000090470125DFF8D08262690B980121904758
:100B1000A0F130010A290AD24745E5DC07EB87013D
:100B200000EB4107303FDFD445F01005ECE7E90664
:100B300001D46FF000476C280AD04C2814D06828E4
:100B400015D06A280DD074281CD07A281AD01DE040
:100B500062690B98012190476C2802D045F004058A
:100B600014E045F002050DE045F020050AE0626959
:100B70000B9801219047682802D045F0080505E050
:100B800045F4006562690B9801219047C4E901575B
:100B900065283DD019DC58287AD00CDC452837D0A0
:100BA00004DC252826D041289ED131E046282FD0CC
:100BB000472899D12CE05B2877D0612828D063287A
:100BC0007CD0642823D15AE0F6E06F2848D008DCB6
:100BD00066281DD067281BD0692821D06E2816D121
:100BE00027E0702845D0732868D0752847D078282A
:100BF0000DD14DE0A1690D988847252805463FF4A1
:100C000069AFE1690D9888476D1C3FF46AAFD8E081
:100C10000D9923466A466FF0010002F09BFCC5E087
:100C200045F0400023464FF000026060A80736D42C
:100C30003EE0E8077FF447AF2068011D21600068AF
:100C4000290501D506701BE7290701D5068017E79E
:100C5000A90703D5F117C0E9006111E706600FE7A6
:100C600045F0400023464FF008026060A80716D404
:100C70001EE040F60E0125EA0100606016E045F036
:100C8000400023464FF00A026060A80707D40FE037
:100C900045F040006060A80708D5234610220D9952
:100CA0006FF00100AFF3008080E007E010222346E0
:100CB0000D996FF00100AFF3008077E04FF000096D
:100CC00063284F46C8464B46CB4602D05B2806D029
:100CD00038E0E80601D40120A060012732E0626913
:100CE000D4F80CB00B98012190475E2807D14FF043
:100CF000010949466269D4F80CB00B989047216904
:100D000039B900210A4603AB43F82120491C0829C0
:100D1000FADBD8B3216949B308F1010862690B987D
:100D2000012190475D28F4D1B9F1000F09D00020CE
:100D300003A951F82020D24341F82020401C082864
:100D4000F7DB03AB2069002820794FEA40701ED002
:100D50005B462246CDF80080CDE901970D99002829
:100D60006FF0010020DAAFF300801FE0C11703AA83
:100D700000EBD1614B1121F01F0102EB8302411AFC
:100D800013680120884003431360C7E719E00D99F9
:100D9000224600286FF00100009702DAAFF30080CE
:100DA00004E0FFF761FA01E0AFF3008000280ADAFF
:100DB000401C06D10C9820B14FF0FF300FB0BDE8B9
:100DC000F08F5046FAE7E90701D10AF1010A06441B
:100DD00000200C9054E60000CCCCCC0C2DE9F04760
:100DE000814616468AB0354878440DC88DE80D0016
:100DF00032487844801C03AC0DC884E80D0041F6ED
:100E00009B300844372190FBF1F290FBF1F5A5F1FE
:100E1000800501FB12041B3C02D56442012000E066
:100E20000020DFF898A080460027FA44AAF1BE0A05
:100E30000EE0E0070AD03246684607EB470101237F
:100E40000AEB810100F038FD8DE8070064107F1C7B
:100E5000002CEED1194F7F44AE3F19E0E80715D0C2
:100E600007EB04100DF1180A90E80E008AE80E0056
:100E7000C068F04201D1981908903246012306A9B2
:100E800003A800F019FD03AB83E807006D10641C94
:100E9000002DE3D14FF0010332466946B8F1000F4F
:100EA00003A802D000F0DEFC01E000F005FDC9E976
:100EB0000001C9F808200AB0BDE8F087402800000A
:100EC00000487047740000207546FFF7F9FFAE46F2
:100ED00005006946534620F00700854618B020B546
:100EE000FFF790F9BDE820404FF000064FF00007F3
:100EF0004FF000084FF0000B21F00701AC46ACE8C2
:100F0000C009ACE8C009ACE8C009ACE8C0098D462E
:100F10007047000010B5FFF795FD001D10BD00BF24
:100F2000991C00002DE9FF4F1F464FF03C0987B088
:100F30004FF00042DDE9141001F10108DDF858A07E
:100F400002EA40500390002005908346054604467F
:100F50000490B969461E08988847AAF1010A0290D0
:100F6000BAF1000F3BDD02982E2815D0102100F0B9
:100F70001FFA00282EDB4FF0010B0599014317D013
:100F8000B9F1000F0BDB4A46C11700F0FEF905432B
:100F90000C43A9F1040905E0012004900BE008B11D
:100FA00045F0010501200590049820B9361D02E0A6
:100FB000049800B1361FB969089808F101088847FC
:100FC000BBF1000FAAF1010A0290C9D00999C1F83A
:100FD0000080C5E70298702808D0502806D0F9692B
:100FE00008988847BBF1000F14D04FE00020029012
:100FF0000120BBF1000F049009D0B969089808F1ED
:1010000001088847AAF10109B9F1000F07DCF96965
:10101000089888476FF001000BB0BDE8F08F2B28CF
:1010200004D02D280CD14FF0FF300490B9690898F6
:1010300008F101088847A9F10109B9F1000FE6DDBF
:10104000411CE4D00A2100F0B3F90028DFDB02994B
:1010500008F1010801EB810100EB41000290B96940
:10106000089888470A2100F0A3F9099AA9F1010913
:10107000B9F1000FC2F8008001DD0028E7DAF96954
:10108000089888470499029800FB016655EA040015
:1010900004D004F04041090002D006E0039898E033
:1010A000A40044EA9574AD00B61E04F000410800A7
:1010B00002D16D196441761E159810F0240F03D0EB
:1010C0004FF00B095C4803E04FF028096FF07D00FA
:1010D0008246564507DAAAEB06018944B9F1410F69
:1010E00001DD4FF0410901200021A9F1010200F0CA
:1010F0004CF9024628400B462140084301D001210B
:1011000000E00021501E029143F1FF3128402140B0
:10111000084301D0012000E000200299834651EAF3
:101120000B014FD0002108464FF00000039900F456
:10113000400039B100EB80004FF4400100EBD0706B
:1011400001EA60008015012802DD4FF0FF3000E069
:1011500013D0401C36D0029860B3BBF1000F0CD105
:101160004A460120002100F010F9284021400843A0
:1011700001D0012000E00020E0B101204A4600211A
:1011800000F003F9034640190A4661412D1A8C41CB
:1011900011D3B9F1400F09DD159810F0240F02D0DA
:1011A000AAF1340603E0AAF1170600E0761C002538
:1011B0004FF0004406E05B1E42F1FF3220EA0305D7
:1011C00021EA0204CAF10100B04206DA1B49039881
:1011D00008430190002000900EE0039AC4F3D3214D
:1011E000E80A0A43164940EA44500A433146CDE929
:1011F0000002684601F038F9159810F0240F0BD062
:101200001598C00715D13868DDE90012031D3B6051
:101210000068C0E900120CE002A8694601F00AF873
:101220001598C00705D13868029A011D3960006819
:1012300002604046F0E6000002FCFFFF0000F07F85
:101240000000F03F2DE9FF4F92461D4685B04FF05C
:101250000041DDE9124BDDE914727F1E01EA4B50BB
:10126000414940F0FF4940EA0108002122F02000F6
:101270004928049102D04E2828D04CE03BA00126FA
:1012800007C88DE80700A9690698641C88477F1E77
:10129000014606D41DF8060018B121F02001814254
:1012A0000BD0E96906988847032E34D0082E32D037
:1012B0006FF0010009B0BDE8F08F761C032E01D05D
:1012C000082EE0D1601CCAF80000DCE7A969069886
:1012D000641C88477F1E2AD420F02000412826D194
:1012E000A9690698641C88477F1E20D420F020003E
:1012F0004E281CD1A9690698641C88477F1E48F4B3
:10130000002849F48009CAF8004001D4282806D0F2
:10131000E969069888475FEACB7012D022E0A96994
:101320000698641C88477F1E01D4002803DAE96907
:1013300006988847BCE72928F1D1641CCAF8004008
:10134000E9E71BF0240F07D028680499031D2B60E0
:101350000068C0E9001805E02868021D2A600068DE
:10136000C0F800902046A5E70000F07F494E4649AE
:101370004E4954590000000010B50446AFF30080F8
:101380002046BDE81040FEF728BFB2F120030AD581
:10139000C2F1200301FA02F120FA03F300FA02F08D
:1013A00041EA0301704700FA03F14FF00000704773
:1013B0003A2800D2303820F02002412A01D3A2F18D
:1013C0003700884201D34FF0FF30704720F07F4C48
:1013D00080EA030023F07F47ACEB070303F57C535F
:1013E00000F0004003F1FF032DE980494FEA154B5F
:1013F00009B44FEA144325EA0B4E24EA03480FF2DE
:10140000042606EB132749083E785FEA320203FB05
:101410000667C7F5000707FB06F64FEA54374FEAA1
:10142000D64606F1020607FB066CCCF1005C4FEADB
:101430001C472CEA074C07FB06F40CFB06F504EBF3
:1014400015464FEA961634BF00204FF000404FEA91
:10145000D13706FB07FC4FEA1C4C0CFB0BF7D21BE9
:1014600003FB0CF761EB07010CFB0EF7B0EB074039
:1014700072EB17420CFB08F734BFA2EB0742B2EB4A
:10148000074261EB17414FEA0C444FEA910706FB14
:1014900007FC4FEA1C4C0CFB0BF7B0EBC74072EBA0
:1014A000573203FB0CF734BFA2EBC742B2EBC74283
:1014B00061EB57310CFB0EF7B0EBC70072EB5772C4
:1014C0000CFB08F734BFA2EBC702B2EBC70261EB1B
:1014D0005771039F4FEA816141EA921104EBCC04FA
:1014E0004FEAD1374FEA826206FB07FC42EA9012CC
:1014F0004FEA80604FEA1C4C0CFB0BF7D21B03FB3E
:101500000CF761EB07010CFB0EF7B0EB074072EB39
:1015100017420CFB08F734BFA2EB0742B2EB0742BD
:1015200061EB17414FEA8C554FEA910704EB9C247D
:1015300006FB07FC4FEA1C4C0CFB0BF7B0EBC7405B
:1015400072EB573203FB0CF734BFA2EBC742B2EB8E
:10155000C74261EB57310CFB0EF7B0EBC70072EBE3
:1015600057720CFB08F734BFA2EBC702B2EBC702FD
:1015700061EB577115EB4C254FEA816141EA9211FD
:101580004FEA82624FEAD13742EA901206FB07FC2B
:1015900044F100044FEA80604FEA1C4C0CFB0BF74F
:1015A000D21B03FB0CF761EB07010CFB0EF7B0EB52
:1015B000074072EB17420CFB08F734BFA2EB07425F
:1015C000B2EB074261EB174115EB1C154FEA813175
:1015D00041EA92414FEA823242EA90424FEA803039
:1015E0004FEA0C7644F1000448EA03434EEA0B4804
:1015F0004FF0000EB2EB080C71EB030724BF6246FC
:1016000039464EEB0E0E4FF0000B00185241494187
:101610004BEB0B0BB2EB080C71EB03077BF1000BF0
:1016200024BF624639464EEB0E0E4FF0000B0018F9
:10163000524149414BEB0B0BB2EB080C71EB03072A
:101640007BF1000B24BF624639464EEB0E0E51EA89
:10165000020718BF46F0010616EB0E7655F10002A0
:1016600054F1000103D5BDE88901BDE80088BDE85B
:101670008901BDE80048B619524141EB0101A3F1CF
:101680000103704780807F7E7D7C7B7A79787776D6
:1016900076757473727171706F6E6E6D6C6C6B6A4F
:1016A0006A696868676666656464636362616160ED
:1016B000605F5F5E5E5D5D5C5C5B5B5A5A5959586A
:1016C00058575756565555555454535352525251D4
:1016D000515050504F4F4F4E4E4D4D4D4C4C4C4B2A
:1016E0004B4B4A4A4A494949484848474747474671
:1016F00046464545454444444443434343424242AD
:101700004241414146EA0646A3F570534FEA164668
:1017100046EA42564FEAD22242EA415210B54FEA17
:10172000D121A3F1010300F02FF820F0004000F1D7
:10173000020C00F0004701EB00501146BCF5006FB1
:1017400040EA070000D210BDBAF1000F0AD01CB564
:1017500003B44FF004004FF004014FF000000FBC41
:10176000BDE810404FF00001BBF1010FB9BF0448C4
:101770004FF0FF310348002140EA070010BD00BFD1
:10178000FFFFEF7F0000F07F002B9C4630D47700F6
:101790002BD01CB54FEA370703B44FF010004FF0C1
:1017A0001001BAF1000F06D0BCF1000FDCBF40F011
:1017B000080040F008014FF000000FBCBDE81040E9
:1017C0000BF1010BBBF1010F08BF5FEA170722BF46
:1017D00012F1010211F101014FF0004143F1000348
:1017E00000F0004043EA00007047F9D35708D0E703
:1017F00046EA064613F1400F4FEA16461FDD13F185
:10180000200FDFBF16430A46002120335B42BED0C3
:10181000C3F1200746EA064602FA07F74FEA1646E2
:1018200046EA0706C3F1200722FA03F201FA07F796
:1018300021FA03F14FF0000342EA0702A7E746EA64
:10184000020646EA06464FEA164646EA0106BCBFCD
:1018500046EA0646360C4FF000034FF000024FF008
:10186000000194E72DE9804C9A46934670B491E8C4
:10187000380007C831EA400C48BF34EA430C03D5AE
:10188000FFF7A4FDFFF780FFF0BCBDE8008C2DE959
:10189000804C9A46934670B491E8380007C831EA04
:1018A000400C48BF34EA430C03D5FFF78FFDFFF728
:1018B00029FFF0BCBDE8008C2DE9804C9A46934688
:1018C00070B491E8380007C810F0804F08BF13F0DB
:1018D000804F03D100F01AF8FFF756FFF0BCBDE8C7
:1018E000008C2DE9804C9A46934670B491E83800FC
:1018F00007C810F0804F08BF13F0804F03D100F0ED
:1019000005F8FFF7FFFEF0BCBDE8008C20F07F4734
:1019100080EA030023F07F4C07EB0C03A3F57C5314
:1019200000F00040A3F1FE0392F0000F00F0B3803E
:1019300095F0000F00F077802DE901494FEA114042
:101940004FEA144621EA004800FB06FC24EA064759
:1019500008FB06F607FB08F800FB07F718EB06483C
:101960004CEB164C4FEA124B18EB07484FEA154662
:101970004CEB174022EA0B4E0BFB06FC25EA064710
:101980000EFB06F607FB0EFE0BFB07F71EEB064EE3
:101990004CEB164C4FF000061EEB074E4CEB174B72
:1019A00018EB0B0840F1000018EB0E0B58EB000889
:1019B00040F100008F1A4FF000013CBFC943661B85
:1019C00014BFB5EB040C00213CBFC943F61B4FEA22
:1019D00017444EEA8E0E27EA04454FEA1C4704FBE3
:1019E00007622CEA074C05FB07F70CFB05F604FB26
:1019F0000CFC16EB074642EB174216EB0C4642EB8B
:101A00001C421BEB060658EB0202414146EA9E06C9
:101A100001D5BDE80189B619524141EB0101A3F19D
:101A20000103BDE801894FEA14454FEA114724EA52
:101A3000054621EA074C05FB07F406FB07F70CFBFC
:101A400006F105FB0CFC11EB074144EB17444FEA90
:101A5000124711EB0C4144EB1C4422EA074C05FBF6
:101A600007F206FB07F70CFB06F605FB0CFC16EB72
:101A7000074642EB174216EB0C4642EB1C456A1830
:101A800054F1000148BF7047B619524141EB0101C2
:101A9000A3F10103704795F0000F37D04FEA1142D0
:101AA0004FEA144721EA024624EA074C02FB07F1F9
:101AB00006FB07F70CFB06F402FB0CFC14EB0744D7
:101AC00041EB17414FEA154714EB0C4441EB1C4125
:101AD00025EA074C02FB07F506FB07F70CFB06F6A9
:101AE00002FB0CFC16EB074645EB174516EB0C46C4
:101AF00045EB1C42121951F1000148BF7047B6195D
:101B0000524141EB0101A3F1010370474FEA144533
:101B10004FEA114724EA054621EA074C05FB07F185
:101B200006FB07F70CFB06F24FF0000605FB0CFC6A
:101B300012EB074241EB174112EB0C4251EB1C41F7
:101B400048BF7047921841EB0101A3F101037047B0
:101B500000BFFEE770472DE9F04102460025002650
:101B6000002000230024002791F803C00CF00F058B
:101B700091F803C00CF0100CBCF1000F03D091F8E9
:101B800002C04CEA050591F800C0BCF1000F31D04D
:101B9000146800202BE04FF0010C0CFA00F3B1F8B0
:101BA00000C00CEA03069E4220D183004FF00F0CC8
:101BB0000CFA03F7BC4305FA03FC4CEA040491F861
:101BC00003C0BCF1280F06D14FF0010C0CFA00FC49
:101BD000C2F814C00AE091F803C0BCF1480F05D167
:101BE0004FF0010C0CFA00FCC2F810C0401C082891
:101BF000D1D31460B1F800C0BCF1FF0F34DD5468DC
:101C000000202EE000F1080C4FF0010808FA0CF358
:101C1000B1F800C00CEA03069E4221D183004FF0C8
:101C20000F0C0CFA03F7BC4305FA03FC4CEA04045E
:101C300091F803C0BCF1280F05D100F1080C08FA97
:101C40000CF8C2F8148091F803C0BCF1480F07D11A
:101C500000F1080C4FF0010808FA0CF8C2F81080E7
:101C6000401C0828CED35460BDE8F0810161704764
:101C700000BFFEE708B50121482000F05FF82020F2
:101C8000ADF8000010208DF8030003208DF802004D
:101C900069460948FFF75FFF20210748FFF7E6FF85
:101CA0002020ADF8000069460448FFF754FF2021CA
:101CB0000248FFF7DBFF08BD000C0140001801409F
:101CC00000BFFEE77047000070B5002100230F221F
:101CD000C47804B3154C246804F4E064C4F5E064EB
:101CE000210AC1F10403CA40447804FA03F184785C
:101CF0001440214309010E4C0678A155047804F0E4
:101D00001F050124AC4005786D11AD0005F1E025FB
:101D1000C5F8004109E0047804F01F050124AC4037
:101D2000044D0678761145F8264070BD0CED00E0B4
:101D300000E400E080E100E07047000029B1064ABD
:101D400092690243044B9A6104E0034A9269824318
:101D5000014B9A61704700000010024030B500212D
:101D60000022002400232D4D6D6805F00C0121B1E7
:101D7000042905D0082923D105E0294D056022E07A
:101D8000274D05601FE0254D6D6805F47012234D49
:101D90006D6805F48034022505EB92421CB9214D93
:101DA000554305600BE01D4D6D6805F400351DB110
:101DB0001C4D5543056002E0194D5543056002E096
:101DC000174D056000BF00BF144D6D6805F0F001B0
:101DD0000909154D6B5C0568DD4045600F4D6D6868
:101DE00005F4E061090A104D6B5C4568DD408560D3
:101DF0000A4D6D6805F46051C90A0B4D6B5C45686E
:101E0000DD40C560054D6D6805F44041890B074D07
:101E10006B5CC568B5FBF3F5056130BD0010024091
:101E200000127A0000093D002E0000203E00002034
:101E3000704710B500F002F810BD00000CB500208E
:101E4000019000903348006840F4803031490860C8
:101E500000BF3048006800F4003000900198401C3A
:101E60000190009818B90198B0F5A06FF1D12948F8
:101E7000006800F4003010B10120009001E0002063
:101E800000900098012843D12348006840F01000DA
:101E9000214908600846006820F0030008600846F1
:101EA000006840F0020008601A484068194948601C
:101EB0000846406848600846406840F480604860D2
:101EC0000846406820F47C1048600846406840F4AA
:101ED000E81048600846006840F08070086000BF65
:101EE0000C48006800F000700028F9D009484068EC
:101EF00020F00300074948600846406840F00200AF
:101F0000486000BF0348406800F00C000828F9D181
:101F10000CBD00000010024000200240042808D13F
:101F20004FF0E021096941F004014FF0E022116116
:101F300007E04FF0E021096921F004014FF0E022B1
:101F4000116170477047000010B51348006840F0F9
:101F500001001149086008464068104908400E49D0
:101F60004860084600680E4908400B49086008466A
:101F7000006820F4802008600846406820F4FE00D5
:101F800048604FF41F008860FFF753FF4FF0006078
:101F90000449086010BD0000001002400000FFF876
:101FA000FFFFF6FE08ED00E010B540F2255116489F
:101FB00000F04BF830B3144800F002F9C4B2232CFF
:101FC0000ED11248007858B923201149114A1278CD
:101FD000885401200D49087000200E49087011E056
:101FE0000A48007870B90A480A49097844540948EF
:101FF0000078401C07490870084600781E2801DB5D
:102000000020087010BD0000003801402C000020A6
:10201000540000202D00002021B1828942F400529A
:10202000828104E082894DF6FF731A4082817047F5
:1020300002460020B1F5007F00D100BF13880B409D
:102040000BB1012000E00020704770B5024600246B
:1020500000230025002040F66A16B14200D100BFDF
:10206000C1F3421501F01F03012606FA03F3012D07
:1020700002D19689334006E0022D02D1168A334000
:1020800001E0968A33400C12012606FA04F4168801
:10209000344013B10CB1012000E0002070BDF0B558
:1020A0000346002400260025002040F66A17B942A6
:1020B00000D100BF1846C1F3421401F01F060127EA
:1020C00007FA06F5012C01D10C3004E0022C01D1F5
:1020D000103000E014301AB107682F43076002E0A7
:1020E0000768AF430760F0BD2DE9F04786B00546AD
:1020F0000E460024A24600BFA1460027B08900B1C9
:1021000000BF2F462C8A4CF6FF700440F088044331
:102110002C82AC894EF6F3100440B0883189084314
:10212000718908430443AC81AC8A4FF6FF400440F8
:10213000B0890443AC8201A8FFF710FE1F48874214
:1021400002D1DDF810A001E0DDF80CA0A88900F4B0
:10215000004040B10AEBCA0000EB0A1031684900A8
:10216000B0FBF1F807E00AEBCA0000EB0A10316897
:102170008900B0FBF1F86420B8FBF0F004012009FD
:10218000642101FB1089A88900F4004040B132208D
:1021900000EBC900B0FBF1F000F00700044308E0D9
:1021A000322000EB09106421B0FBF1F000F00F00C9
:1021B00004432C8106B0BDE8F087000000380140E0
:1021C00001468888C0F308007047C1F30802828086
:1021D000704700BFFEE74100080218BF04200A0E46
:1021E00018BF40F001004FF07F4232EA010108BF02
:1021F00040F00200012808BF0520704740F201327C
:1022000000204FF0E04101F051B90000024A0020E7
:10221000110701F04BB9000001FDFFFF012101F0A2
:1022200073B90021084600F087BE6FF05E01080711
:1022300001F06AB910B50446D1E9000100F0B6F822
:10224000206010BD2DE9F04D0D4614464FF07F4142
:10225000B1EB440F9EBF4FF0FF312960BDE8F08D18
:102260004FF0004040EA0421C4F3C750783810F022
:102270001F024A4B4FEA601CC2F120067B44C4F3A4
:10228000C750A0F178004FEA601003EB800053F8CC
:102290002C3008BFD0E901C612D0D0F804C093405A
:1022A0002CFA06F73B4387680CFA02FC27FA06F87B
:1022B000C06807FA02F2F0404CEA080C42EA000655
:1022C000A3FB0132ACFB01C0A6FB016101EB0C06D4
:1022D0008E4234BF4FF0010C4FF0000CC118614426
:1022E000BCF1000F02D0814202D903E0814201D249
:1022F000012000E00020104400F120024FEA921873
:102300008006CA0C40EA42304F03C5F8008000F056
:10231000F1FE8246384600F005FF6FF0120101F031
:10232000F3F80746304600F0FDFE6FF0250101F09E
:10233000EBF883463946504600F096FD594600F0CA
:1023400093FD00F500666FF30B065146304601F031
:1023500003F8394601F000F8594600F0F3FF104940
:1023600000F0F4FE07460F49304600F0EFFE394614
:1023700000F07AFD07460C49304600F0E7FE39468A
:1023800000F072FD14F0004F08BFBDE8F08DC8F1F9
:10239000805180F000402960BDE8F08D10130000EE
:1023A000DB0FC92F22AAFD290000C92FF8B504466A
:1023B0000D466A4600F04CF900987E3000900028E7
:1023C0001EDC002213462046294600F051FC17D09F
:1023D000002140F608004FF000000646204629463E
:1023E00000F000FC044640F6080006EA00014FF049
:1023F000000034F0004004BF0220FEF742F829E05C
:102400000098FF2828DB002108464FF0000000F468
:102410004006002213462046294600F0EFFC8CBF00
:10242000002501250220FEF72CF84FF0FF4446B1AD
:10243000002D0CBF4FF400004FF48000B04218BFD5
:10244000084C042108464FF00000002D04BF84F022
:102450000040F8BD2046F8BD20462946BDE8F840BA
:1024600000F0C0BBFFFF7F7F10B504460A46D4E9E9
:102470000003194600F070F9C4E9000110BD3038BE
:102480000A2801D2012070470020704700BF704722
:102490002DE9F843044602464F486946B0EB420F27
:1024A00009D94FF0E640B0EB420F94BF00204FF047
:1024B000FF30009030E0494B22F00040834271D958
:1024C0004749204600F042FE00F00CFF804600F035
:1024D000F5FD00F0030000904249404600F036FE52
:1024E00005464149404600F031FE06463F49404618
:1024F00000F02CFE07463E49404600F027FE2146EC
:1025000000F020FF394600F027FF314600F024FF9D
:10251000294600F021FF04462546009C002C45DB9F
:10252000294614F0010F08461CD000F00FFE0646A5
:10253000304900F00BFE304900F004FF314600F056
:1025400005FE2E4900F090FC314600F0FFFD2946C3
:1025500000F0FCFD294600F087FC14F0020F1CD0AF
:10256000BDE8F88300F0F2FD0546254900F0EEFDD8
:10257000244900F079FC294600F0E8FD224900F0EA
:1025800073FC294600F0E2FD4FF07E5100F06CFC38
:1025900014F0020F08BFBDE8F88380F00040BDE8EA
:1025A000F883FFE71046FFF74DFEB4E76800B0F18F
:1025B0007F4F3CBF4FF07E50BDE8F88307D14FF00E
:1025C0000100FDF75EFFBDE8F843FFF72ABE28468D
:1025D000BDE8F843FFF722BEB61F927E490E49467A
:1025E00083F9223F1A61342C0020A23300A0FD3968
:1025F0000000C93F336D4C39DA82083CA0AA2ABEDC
:10260000B93AB2BACA9F2A3DDDFFFFBE10B56FF0DE
:102610000400FFF783FC0A4800680A49B0FBF1F0A8
:10262000094908700846007800EB4001C1EBC01072
:102630004FF6FF7101EAC0000449088010BD000098
:102640001000002000127A00240000202600002044
:1026500010B5144600222260114A21F00043934233
:10266000A8BF10BD53EA000208BF10BDB3F5801F1C
:10267000A8BF226807DA362200F018FF6FF0350293
:1026800021F000432260DFF81CC06FF31E510CEBF9
:1026900023531A4441F0FF5141F00051226010BD14
:1026A0000000F07F02FCFFFF00B587B001AB02AA7B
:1026B00003A904A800F0D6F968B10AA104A8FDF79F
:1026C00097FE40B9084903980860084902980860D5
:1026D000074901980860002004900590069007B013
:1026E00000BD00005049440000000020040000200C
:1026F0000800002010B51548006800F0EFF81449F4
:10270000086012480068FFF7C3FE114948600F488F
:1027100001684FF0804000F019FD0446FFF7B8FE55
:102720000B49886009480068FFF7B2FE04464FF085
:10273000804100F00BFD0649C86006490348006867
:1027400000F092FB0149086010BD00000C00002061
:102750004400002045D8203E2DE9F04106460C46B5
:1027600040F2FF75174635EA14502BD0002213466D
:10277000304600F07DFA25D03A463046214600F03A
:1027800095FE06460C4635EA145010D0002213463A
:10279000304600F06DFA15D10220FDF772FEFFF70A
:1027A00035FD0A46214662F31E01BDE8F081022094
:1027B000FDF767FEFFF722FD0A46214662F31E0180
:1027C000BDE8F08130462146BDE8F081FFF71EFFED
:1027D000FFF750FA4FF4E13000F072F905E000F035
:1027E00005F8FFF787FFFFF75FFFF8E700B599B03F
:1027F00024A003C8CDE9170124A103C9CDE915011F
:1028000024A103C9CDE9130124A103C9CDE9110114
:10281000242224A108A8FDF797FD2B480068019009
:102820002948406802902848806803902648C0687C
:1028300004902648006805902548006806902548C1
:1028400000680790062217A9234800F089F923227F
:1028500008A9214800F084F9062215A91E4800F0B5
:102860007FF9062213A91C4800F07AF91C2201A95D
:10287000194800F075F9062211A9174800F070F9FF
:1028800019B000BD4141424243430000434342422C
:102890004141000044444545464600004646454502
:1028A0004444000073696E2878292C636F7328787C
:1028B000292C636F73283278292C32636F73287840
:1028C000292C502C492C44004400002000000020FA
:1028D0000400002008000020003801402DE9F843E2
:1028E0000446024652486946B0EB420F09D94FF000
:1028F000E640B0EB420F94BF00204FF0FF30009055
:1029000030E04C4B22F00040834271D94A492046C6
:1029100000F01CFC00F0E6FC804600F0CFFB00F06D
:10292000030000904549404600F010FC054644492C
:10293000404600F00BFC06464249404600F006FCCB
:1029400007464149404600F001FC214600F0FAFCF0
:10295000394600F001FD314600F0FEFC294600F04A
:10296000FBFC04462546009C002C45DB294614F060
:10297000010F08461ED000F0E9FB0546334900F080
:10298000E5FB334900F070FA294600F0DFFB3149DE
:1029900000F06AFA294600F0D9FB4FF07E5100F0B2
:1029A00063FA14F0020F08BFBDE8F88380F000401E
:1029B000BDE8F88300F0CAFB0646274900F0C6FBD5
:1029C000264900F0BFFC314600F0C0FB244900F06E
:1029D0004BFA314600F0BAFB294600F0B7FB294616
:1029E00000F042FA14F0020FE0D1BDE8F883FFE7EF
:1029F0001046FFF727FCB4E76800B0F17F4F09D21B
:102A00002846FFF7E8FB042808BFFFF70EFC28461E
:102A1000BDE8F88306D10120FDF733FDBDE8F8439A
:102A2000FFF7FFBB2846BDE8F843FFF7F7BB000000
:102A3000B61F927E490E494683F9223F1A61342C13
:102A40000020A23300A0FD390000C93FB93AB2BA54
:102A5000CA9F2A3DDDFFFFBE336D4C39DA82083C48
:102A6000A0AA2ABE2DE9FC4104460D4616461F4683
:102A70004FF000080C480078012812D12B4622465E
:102A80000AA10E48CDE90067FDF7D0FB042801D16B
:102A90004FF001081E210948FDF788FC002002497B
:102AA00008704046BDE8FC812C0000202533733DB2
:102AB00025662C25662C2566230000005400002086
:102AC00010B586B00446012144F20400FFF736F940
:102AD0004FF40070ADF8140003208DF81600182094
:102AE0008DF8170005A91C48FFF735F84FF48060F2
:102AF000ADF8140004208DF8170005A91648FFF75B
:102B00002AF825208DF8000003208DF801008DF8AB
:102B1000020001208DF803006846FFF7D5F8019404
:102B20000020ADF80800ADF80A00ADF80C00ADF8D3
:102B300010000C20ADF80E0001A90848FFF7D4FAE8
:102B4000012240F225510548FFF7A9FA0121034867
:102B5000FFF762FA06B010BD0008014000380140DE
:102B600070B506460C4615460BE000BF40213046C6
:102B7000FFF75EFA0028F9D021783046FFF725FBF1
:102B8000641C281EA5F10105EFD170BD10B5002908
:102B90000AD00878002807D005487844FDF728FCBB
:102BA000002801D0002010BD0248784410BD00006C
:102BB000DA0A0000D20A000010B500290AD008780D
:102BC000002807D005487844FDF712FC002801D002
:102BD000002010BD0248784410BD0000CA0A000061
:102BE000C20A000021F00042A2F16052B2F5801F3B
:102BF00001F0004328BFD2F17F6C0BD95FEA001CC3
:102C000043EAC20242EB507018BF704728BF20F061
:102C100001007047B2F5801FBCBF184670474FEAED
:102C2000410C1CF5001F02D2084600F056BB70B5DF
:102C300000F096F800000089FFF7F6BF4FF0004063
:102C4000A0F580007047000002494FF0000000F03E
:102C5000FBBB00BF0000F87F491058BFC1F14041E5
:102C60005B1058BFC3F140438B42EFF300807047C5
:102C700051EA030C17D41CF5801F58BFBCF5801F08
:102C800000F10680994218BF704708BF9042704714
:102C900007D711F5801F58BF13F5801F19D499422B
:102CA0007047894270471CF5801F08D5BCF5801F0E
:102CB000F7D58B4218BF704708BF824270474FF468
:102CC000001C1CEB410F38BF1CEB430F01D28B42A1
:102CD000704770B500F044F8922449004FF000515D
:102CE0004FF08053FFF7B8BF51EA030C17D41CF51F
:102CF000801F58BFBCF5801F00F10680994218BFA5
:102D0000704708BF9042704707D711F5801F58BF22
:102D100013F5801F19D499427047894270471CF5FA
:102D2000801F08D5BCF5801FF7D58B4218BF7047B0
:102D300008BF824270474FF4001C1CEB410F38BFA4
:102D40001CEB430F01D28B42704770B500F008F8BE
:102D5000922449004FF000514FF08053FFF77CBFA1
:102D60000EF1020E2EF0030E5EF8046B364205D40F
:102D7000012A43EB030515F5001F12D8012841EB8A
:102D8000010C1CF5001F0CD80ED14FEAD17C15F5B3
:102D9000001F0CEB4C0C0CF1020C08BF4CEBD37C6D
:102DA00004E04FF0080C01E04FEAD37C0CEB4C053B
:102DB00026FA05F606F00706B6F1040C06D20EEB6D
:102DC000860CBDE870404CF0010C6047DFE80CF069
:102DD000090B02024FF000414FF00000A1F5002165
:102DE00070BD19461046012851EB010418BFD4F5F7
:102DF000001484BF002001F0004170BD53EA010CB3
:102E000017D41CF5801F58BFBCF5801F00F1068049
:102E10008B4218BF704708BF8242704707D713F52F
:102E2000801F58BF11F5801F19D48B4270479B42F9
:102E300070471CF5801F08D5BCF5801FF7D5994257
:102E400018BF704708BF904270474FF4001C1CEB3E
:102E5000430F38BF1CEB410F01D2994270470FB4AA
:102E60000CBC03BCFFF771BF90EA010F48BF81F0B3
:102E7000004100F17882421A3CBF801A89184FEA5B
:102E8000D0524FF07F4C1CEA410FA2EBD15318BF38
:102E90009CEA026F00F03B804FF0004C4CEA0020AF
:102EA0004CEA012121FA03FC10EB0C0C1ED202F1BA
:102EB000FF325FEA1C2040EBC25038BF70471CF065
:102EC0007F0F4FEA400C18BFBCF17F4F38BF7047EF
:102ED000C3F12003994008BF20F00100BCF17F4FEF
:102EE00038BF7047A0F1C04000F0F7B94FEA3C008E
:102EF000000A40EBC25028BF1CF0FF0F4FEA400C05
:102F0000E6D018BFBCF17F4F38BF7047EAE79CEAB4
:102F1000026F05D010EA5C0F08BF00F00040704758
:102F200010B500F094F900BF64FBBE3E014800F00C
:102F30008BBA00BF0000C07F4FF47F0C1CEAD01298
:102F40001EBF1CEAD11392EA0C0F93EA0C0F00F09B
:102F5000858090EA010F48BF42F4807240F4000C73
:102F600041F400002CF07F4120F07F4000B5814209
:102F7000A2EB03020FF2081CACEB504EC0F10000B4
:102F80009EF800E04FEA4E0E00FB0EFC38BF4900F1
:102F90004FEA2C1C02F5FA020CFB0EF34FEACE1E90
:102FA0004FEA112C4FEAC1210EEB635E42EB224245
:102FB0000EFB0CFC4FEA1C5300FB03114FEA112CD3
:102FC0004FEA01310EFB0CFC4FEADC4C00FB0C110C
:102FD000C14228BF09184CEB03335DF804EB10EB3A
:102FE000410143EBC250B2F57C0F38BF704729D581
:102FF00012F0F00F1CBF00F1C04000F0004070471D
:10300000008182838485868788898B8C8D8E8F91C1
:103010009293959697999A9C9D9FA0A2A3A5A7A8E5
:10302000AAACAEB0B2B3B5B7B9BCBEC0C2C5C7C911
:10303000CCCED1D4D7D9DCDFE2E6E9ECF0F3F7FA75
:10304000FE0000004FEA400C0CF1807CBCF17E4F8A
:1030500028BF7047B0F1C04000F03FB990EA010FBF
:103060000CEAD11348BF42F48072624538BF634511
:1030700007D213F47F0F16D080EA010000F0004061
:10308000704710B500F0E3F8097EFC3E00F005B88B
:1030900080EA010000F00040704780EA010000F083
:1030A000004000F01AB912F47F0F04BF02487047C5
:1030B00080EA010000F011B90000C07F41000B0E52
:1030C000D3F19E0208D950F400034FEA032323FAF8
:1030D00002F048BF4042704710B500F0B8F800BF9A
:1030E00049922480002070476FF0004282EA20005D
:1030F0007047000010F0004148BF4042B0FA80F332
:1031000010FA03F2C3F19D030BD051EAC35101EB56
:103110001220530638BF704700F1010008BF20F0AD
:1031200001007047B0FA80F310FA03F2C3F19D0377
:103130000AD0D90501EB1220530638BF704700F1C1
:10314000010008BF20F00100704700004FF47F0C21
:103150001CEAD0121EBF1CEAD11392EA0C0F93EAAC
:103160000C0F00F0478090EA010F48BF42F48072D4
:103170004FF0004C4CEA00204CEA012102EB030224
:10318000A0FB0113A2F50002002918BF43F00103C0
:103190005B0028BF4FEA330342EB22425FEA132C65
:1031A0004CEBC2502EBFBCEB436FB2F57C0F7047A7
:1031B0004FEA036CBCF1004F08BF20F00100B2F5EC
:1031C0007C0F38BF70470BD582F0FF0212F5803FAD
:1031D000C8BF704700F1C040D8BF00F00040704742
:1031E00000F5000C5FEA4C0C48BF7047B0F1C040DE
:1031F00000F073B890EA010F0CEAD11348BF42F413
:103200008072624538BF634504D280EA010000F055
:103210000040704710B500F01AF800BF8900013E69
:1032200000F007B800F009B85FEA410C5FEA1C6CD7
:1032300008D080EA010000F050B85FEA400C5FEA75
:103240001C6CF6D14FF00040A0F5800070470EF1E5
:10325000020E2EF0030E5EF8044B244204D44FEA13
:103260004102B2F17F4F11D84FEA4003B3F17F4FD3
:103270000CD80ED14FEAD07CB2F17F4F0CEB4C0C46
:103280000CF1020C08BF4CEBD17C04E04FF0080CB1
:1032900001E04FEAD17C0CEB4C0324FA03F404F078
:1032A0000704B4F1040C06D20EEB840CBDE8104008
:1032B0004CF0010C6047DFE80CF0070802024FF009
:1032C0000040A0F5800010BD0846420018BFD2F1B2
:1032D000807288BF00F0004010BDFF2141EAD0504D
:1032E000C00570475FEA400C5FEA1C6CBCF17F03CD
:1032F00014D4D3F1170240F31C804FF0010C0CFAE8
:1033000002FCACF101030340B3EB5C0220EA0300D2
:1033100008BF10EA0C0F88BF60447047B3F1FF3F4D
:1033200028BF5FEA002C00F0004088BF40F07E50CC
:103330007047BCF1FF0FB8BF704710B5FFF787FFAC
:1033400040DBB6BE80F0004090EA010F7FF593AD00
:1033500081F0004100F007B890EA010F48BF81F00A
:1033600000413FF588AD421A04D882F00042A0EB3C
:10337000020011444FEAD0524FF07F4C1CEA410F3B
:10338000A2EBD15318BF9CEA026F4AD04FF0004C19
:103390004CEA00204CEA012121FA03FCB0EB0C0CB2
:1033A0000FD412F0FE0F36D05FEA4C001DD500128C
:1033B00040EBC25038BF70471CF03F0F18BF70473A
:1033C0000BE0A2F101025FEA1C2040EBC25038BFC3
:1033D00070471CF07F0F18BF7047C3F1200399405E
:1033E00014BF401E20F00100704780084FEA1223EE
:1033F00008BF7047B0FA80FCA2EB0C02CCF1280C9D
:1034000060FA0CF093EA122F04BF00EBC250704731
:103410004FEAC3707047130A5FEADC1008BF7047B9
:10342000F6E79CEA026F04D010EA5C0F08BF0020A8
:10343000704710B5FFF70BFF40DFF63E81F000400C
:1034400070474FF0000070470CF00F03092B08BFC6
:10345000082000F085800A2B0BD0082B18BF70477E
:1034600008BF1CF0400F0AD04FF000004FF00001E1
:1034700070471CF0400F18BF4FF0004070471CF021
:10348000100F08D020F0704300F07F4242EAD301D1
:103490004FEA4370704700F0604021F07F4242EAFB
:1034A000000201F07F4040EA727070474FF0FF0C5D
:1034B0004CF4E06C1CEA11531CBF9CEA030C9445CD
:1034C000C2BFDA4201EB02517047002B0DD0BCF1B4
:1034D000000F0FD0002A01F00041A4BF41F0E041ED
:1034E00041F07F614FF00000704701F000414FF064
:1034F0000000704750EA01334FF09B0C18BF4CF0AE
:10350000806C7FF4A1AB70474FF0FF0212EAD052FB
:103510001CBF92F0FF038B42C2BFD14200EBC150EF
:103520007047002A0AD0002B0BD0002900F0004081
:10353000A4BF40F0FE4040F40000704700F000409F
:10354000704743024FF00B0C18BF4CF0806C7FF4B7
:10355000EDAC7047FDF7C2B8FDF7E4BCFDF772BEF5
:103560001CF4801F11D01CF4E02F03D06FEACC3183
:10357000490070474FF04050EFF3008222F0704254
:1035800042EA000282F3008870474FF00000704763
:10359000000000006E83F9A22915444ED15727FC84
:1035A000C0DD34F5999562DB4190433CAB6351FE3D
:1035B00002400000000000A00000000005400000E4
:1035C000000000C8000000000C4000000000409C0B
:1035D00000000000194000000020BCBE00000000F8
:1035E00034400000BFC91B8E00000004B54000003D
:1035F000504BCFD06607E2CF010000006C410000C5
:103600003E8251AADFEEA73401000000D94200003B
:10361000DCB5A0E23A301F97FFFFFFFFB445000082
:10362000FD25A0C8E9A3C14FFFFFFFFFFF3F00003A
:103630000000008000000000FF3F0000000000804C
:1036400000000000A0370008000000204400000037
:103650006C010008E43700084400002094060000D4
:1036600088010008000000000000F07FFFFFFFFF5E
:10367000FFFFEF7F1C00000043000000F8FFFFFF8A
:103680000C0000000E0000000F0000002E000000E3
:103690001001000043000000F8FFFFFF0040404021
:1036A0004040404040404141414141404040404015
:1036B00040404040404040404040404040050202C1
:1036C0000202020202020202020202020220202080
:1036D00020202020202020020202020202029090DC
:1036E00090909090101010101010101010101010DA
:1036F000101010101010101002020202020288882E
:103700008888888808080808080808080808080839
:103710000808080808080808020202024000000021
:103720000000000000000000000000000000000099
:103730000000000000000000000000000000000089
:103740000000000000000000000000000000000079
:103750000000000000000000000000000000000069
:103760000000000000000000000000000000000059
:103770000000000000000000000000000000000049
:103780000000000000000000000000000000000039
:103790000000000000000000000000000000000029
:1037A0000000000000000000000000000000000019
:1037B00000A24A040000000000000000010203040F
:1037C00006070809000000000000000000000000DB
:1037D00000000102030401020304060708090204B1
:0437E00006080000D7
:04000005080001E905
:00000001FF
