:020000040800F2
:10000000580A0020C1010008DD020008D5020008DE
:10001000D90200086D020008750400080000000005
:100020000000000000000000000000000B030008BA
:100030007102000800000000090300080D03000819
:10004000DB010008DB010008DB010008DB01000820
:10005000DB010008DB01000875020008DB01000875
:10006000DB010008DB010008DB010008DB01000800
:10007000DB010008DB010008DB010008DB010008F0
:10008000DB010008DB010008DB010008DB010008E0
:10009000DB010008DB010008DB010008DB010008D0
:1000A000DB010008DB010008DB010008DB010008C0
:1000B000DB010008DB010008DB010008DB010008B0
:1000C000DB010008DB010008DB010008DB010008A0
:1000D000DB01000841040008DB010008DB01000827
:1000E000DB010008DB010008DB010008DB01000880
:1000F000DB010008DB010008DB010008DB01000870
:10010000DB010008DB010008DB010008DB0100085F
:10011000DB010008DB010008F9030008DB0100082F
:10012000DB010008DB010008DB010008DB0100083F
:10013000DB010008DB010008DB010008DB0100082F
:10014000DB010008DB010008DB010008DB0100081F
:10015000DB010008DB010008DB010008DB0100080F
:10016000DB010008DB010008DB010008DB010008FF
:10017000DB010008DB010008DB01000800000000D3
:10018000DB010008DB010008DB010008DB010008DF
:10019000DB010008DB010008DB01000800000000B3
:1001A000DB010008DB010008DB010008DFF80CD0F0
:1001B00000F04AF800480047210C0008580A0020C7
:1001C0000648804706480047FEE7FEE7FEE7FEE7F1
:1001D000FEE7FEE7FEE7FEE7FEE7FEE73103000885
:1001E000AD01000840EA01039B0703D009E008C9FC
:1001F000121F08C0042AFAD203E011F8013B00F8EC
:10020000013B521EF9D27047D2B201E000F8012B37
:10021000491EFBD270470022F6E710B513460A4686
:1002200004461946FFF7F0FF204610BD30B50446DE
:100230000020034600E05B1C934203D2E05CCD5CEF
:10024000401BF8D030BD0000064C074D06E0E068CA
:1002500040F0010394E8070098471034AC42F6D30D
:10026000FFF7A8FFA0260008C026000800BFFEE791
:100270007047000010B5012000F0FCFB012813D1ED
:1002800001210A4800F041FC012807D180210848DB
:1002900000F039FC07A000F0EFF802E009A000F040
:1002A000EBF8012000F0E0FB10BD00000000024070
:1002B000000C02406B6579207072657373210D0A22
:1002C000000000006B65792072656C6561736521C3
:1002D0000D0A000000BFFEE700BFFEE77047000008
:1002E00010B5002807DA0A07140E054A00F00F03BC
:1002F0001B1FD45403E00A07130E024A135410BD07
:1003000018ED00E000E400E0704770470648006820
:1003100020B105480068401E034908600348006892
:10032000401C0249086070470400002000000020C3
:1003300008B52D48006840F470002B4908602B4830
:10034000006840F00100294908602848083000682A
:1003500040F080002549083108600020009002E04C
:100360000098401C00904CF2503100988842F7D31E
:100370001E480830006840F090001C4908310860B1
:100380000020009002E00098401C00904CF2503198
:1003900000988842F7D315480830006820F0030021
:1003A00012490831086011480068114908400F4996
:1003B00008600846006820F48020086000200B498F
:1003C0000831086000BF0948083000680020002894
:1003D000F9D108480549091D0860002003490C317E
:1003E000086001F09BFE08BD88ED00E00038024087
:1003F000FFFFF6FE1030002410B50121084801F07F
:10040000C2FE01280AD10121054801F0B9FE802170
:10041000044800F078FB04A000F02EF810BD0000A6
:1004200000100040000C02404253505F54494D45BB
:10043000525F49525148414E444C4552210D0A00E9
:1004400010B50849084802F020F8012809D10648EB
:1004500001F01AFFC4B2054B054A2146002000F006
:10046000ACFF10BD05030500001001405001002045
:100470002C00002000BFFEE7014A024900F06CBAE0
:10048000990A0008240000204100080218BF042037
:100490000A0E18BF40F001004FF07F4232EA01011E
:1004A00008BF40F00200012808BF05207047000087
:1004B00010EE101A08B5444A6846B2EB410F28D92D
:1004C0004FF0E640B0EB410F94BF00204FF0FF30FB
:1004D00000900098002861DB60EE000A10F0010F28
:1004E00045D010F0020FDFED391A9FED391A00EEFA
:1004F000E11ADFED381A40EE811A21EEA01AF0EE73
:10050000400A40EE010A08BFF1EE600AB0EE600A50
:1005100008BD314B21F0004293423CD911F0004F0D
:10052000DFED2E0A20EE201ADFED2D0A19BF31EE85
:10053000601A71EE200A31EE201A71EE600ABDEEEB
:10054000E01A11EE100A9FED271A00F0030000EEEA
:10055000C10A9FED251A009000EEC10A9FED231AF3
:1005600000EEC10A9FED221A00EEC10AB1E79FED2D
:10057000211A9FED210A10F0020F00EE810A9FED73
:100580001F1A00EE801AB7EE000A00EE810A18BFAB
:10059000B1EE400A08BD00F00FF99AE710EE100A1C
:1005A0004000B0F17F4F3CBFB7EE000A08BD07D155
:1005B0004FF0010000F0BAF9BDE8084000F0ECB8D7
:1005C000BDE8084000F0E4B8B61F927E336D4C39A8
:1005D000DA82083CA0AA2ABE490E494683F9223F86
:1005E0000000004B0000C93F00A0FD390020A233ED
:1005F0001A61342CB93AB2BACA9F2A3DDDFFFFBE58
:1006000000B510EE101A2DED028B81B0524A6846EB
:10061000B2EB410F2ED94FF0E640B0EB410F94BF43
:1006200000204FF0FF3000900098B0EE408A002884
:100630006ADB10F0010F4BD068EE080A9FED471AF5
:100640009FED470A00EE810A9FED461A10F0020F57
:1006500000EE801AB7EE000A00EE810A02BF01B078
:10066000BDEC028B00BD00BF01B0B1EE400ABDEC95
:10067000028B00BD3C4B21F00042934241D911F066
:10068000004FDFED3A0A20EE201ADFED390A19BFDC
:1006900031EE601A71EE200A31EE201A71EE600A16
:1006A000BDEEE01A11EE100A9FED321A00F00300C1
:1006B00000EEC10A9FED301A009000EEC10A9FEDD6
:1006C0002F1A00EEC10A9FED2E1A00EEC10AABE709
:1006D00028EE080A9FED2B1ADFED2B0A10F0020F0F
:1006E00040EE410A9FED291A00EE201A61EE000A41
:1006F000B0EE480A08EE200AB6D101B0BDEC028B7C
:1007000000BD00F059F88FE718EE100A4000B0F174
:100710007F4F0DD218EE100AFFF7B6FE042808BF6F
:1007200000F042F8B0EE480A01B0BDEC028B00BD0B
:1007300009D1012000F0FAF801B0BDEC028B5DF8A0
:1007400004EB00F029B801B0B0EE480ABDEC028B12
:100750005DF804EB00F01CB8B61F927EB93AB2BA4D
:10076000CA9F2A3DDDFFFFBE490E494683F9223F5D
:100770000000004B0000C93F00A0FD390020A2335B
:100780001A61342C336D4C39DA82083CA0AA2ABE97
:1007900030EE000A70470000DFED020A80EEA00A8A
:1007A00070470000000000009FED020A20EE000AE2
:1007B00070470000000000102DE9F0014FF07F426B
:1007C000B2EB410F9FBF4FF0FF310160BDE8F00178
:1007D00070474FF0004242EA0123C1F3C752783A12
:1007E000551112F01F0C434CCCF120067C44C1F390
:1007F000C752A2F178024FEA621204EB820254F867
:10080000254008BFD2E9015612D0556804FA0CF40D
:1008100025FA06F73C43976805FA0CF527FA06F81F
:10082000D26807FA0CFCF24045EA08054CEA0206D9
:10083000A4FB034CA5FB0352A6FB03631D449D428E
:1008400034BF012600261319334416B1934202D94E
:1008500003E0934201D2012200E00022624402F14F
:10086000200C9206DC0C42EA443200EE102A5B03B4
:10087000DFED210AF8EEC01A00EE103A4FEA9C1C98
:1008800011F0004FB8EE400AC0F800C020EE201A68
:1008900000EE105ADFED190AB8EE400A20EE200AE9
:1008A00071EE810A70EE800A10EE902A02F5006265
:1008B0006FF30B0200EE902A70EEE11A31EEC11ACE
:1008C000DFED101A30EE411A9FED0D0A20EE800A7E
:1008D00001EE210A9FED0C1A00EE810A04BFBDE86B
:1008E000F0017047CCF180510160BDE8F001B1EE3C
:1008F000400A7047901E0000000000360000802C67
:1009000022AAFD29DB0FC92F0000C92F02E008C869
:10091000121F08C1002AFAD170477047002001E079
:1009200001C1121F002AFBD1704700000149086075
:1009300070470000280000208178491C81707047B2
:10094000024601E0481EC1B2012903DD481E105CC9
:100950000028F7D0084670472DE9F04116460F46AB
:100960000446002503E03946B047641C6D1C20781E
:100970000028F8D12846BDE8F08102460B7883EACA
:10098000020080EA0013D8B20B881B1283EA00230E
:1009900083EAC00383EA20130B80704710B52D4B08
:1009A0001B6883432B4C2360231D1B688343241D3A
:1009B0002360231D1B688343241D2360231D1B68A4
:1009C0008343241D236011B101290ED105E0214B81
:1009D0001B6803431F4C236008E01E4B1B1D1B6854
:1009E00003431C4C241D236000E000BF00BF32B154
:1009F000012A11D0022A1CD0032A27D127E0154B47
:100A000008331B680343134C08342360231D1B6801
:100A10008343241D23601BE00E4B08331B68834374
:100A20000C4C08342360231D1B680343241D2360E2
:100A30000EE0084B08331B680343064C0834236060
:100A4000231D1B680343241D236001E000BF00BF7A
:100A500000BF10BD003C0140024909680143014A42
:100A600011607047003C0140014908607047000078
:100A7000143C014001460748006800EA01020548AD
:100A80001438006800EA010312B10BB1012070476D
:100A90000020FCE7143C014070B504460D46E0B26E
:100AA00001F020FD204670BDF0B503461C6A5D6A6A
:100AB00000200DE00126864016403EB187000F263B
:100AC000BE40B443860001FA06F63443461CB0B279
:100AD0000828EFD3082011E00126864016405EB1B9
:100AE000A0F10806B7000F26BE40B543A0F10806E6
:100AF000B60001FA06F63543461CB0B21028EBD317
:100B00001C625D62F0BDC162704702461069084018
:100B100008B1012070470020FCE7F0B504460D46FF
:100B200016462168E268002019E0012787401F402F
:100B30009FB14FEA400C032707FA0CF7B94347006F
:100B400005FA07F739434FEA400C032707FA0CF779
:100B5000BA43470006FA07F73A43471CB8B21028D1
:100B6000E3D32160E260F0BDF0B50C461546012CE0
:100B700003D146681E43466002E046689E434660D5
:100B8000826800210DE001268E401E403EB14F00DC
:100B90000326BE40B2434E0005FA06F632434E1C11
:100BA000B1B21029EFD38260F0BD000010B54FF450
:100BB000406001F02FF841F20E1001F02BF80123F4
:100BC000022200210B48FFF7A8FF0322114606204E
:100BD00000F022FF0021084601F0CCF9022200219A
:100BE0000120FFF7DBFE0120FFF736FF0120FFF7B2
:100BF0003BFF10BD0000024010B540F6034001F07D
:100C000009F88023002201210448FFF786FF802392
:100C1000022200210148FFF7A7FF10BD000C02408F
:100C20004FF4A06000F05AFF01F07CFAFFF7E4FFF8
:100C3000FFF7BCFF4FF4E13001F0B2FB01F04CF9DB
:100C400001E001F01DF8FCE770B506460C461546BC
:100C500024B929463046FFF7DEFA04E02A46214649
:100C60003046FFF7BFFA70BD2DE9FF4F89B004464B
:100C70001D46287BC0F3400646B9286930B1286973
:100C8000007800F0010008B1012000E0002080465B
:100C9000B8F1000F01D00D2000E0002008900A27D5
:100CA0001EB1FE20A070062701E0FD20A0700EB14D
:100CB000169804E004F10C001799FFF741FEE0706C
:100CC0000A98E0710B98207200202071B8F1000F93
:100CD00003D0207940F00100207100206071A879D4
:100CE000A071A879401CA871A0788DF81400E07854
:100CF0008DF815006EB1A0798DF81600E0798DF8A9
:100D00001700207A8DF818002089000A8DF8190044
:100D10001AE020798DF8160060798DF81700A07917
:100D20008DF81800E0798DF81900207A8DF81A00F6
:100D30002089000A8DF81B00A068000C8DF81C00AB
:100D4000A068000E8DF81D000DF11509781E1FFA20
:100D500080FA00BF4FF6FF70039000BF04E019F85F
:100D6000010B03A9FFF709FEBAF10000AAF1010186
:100D70001FFA81FAF3D1BDF80C0004900DF11009AF
:100D800004F10C0AE0780390D34604E01BF8010B51
:100D90004946FFF7F2FD0398411E89B203910028EE
:100DA000F4D100BF04A91898FFF7E7FDBDF81000C3
:100DB000C1B2E27804F10C008154BDF810000212B7
:100DC000E078401C04F10C010A54BDF810002080AA
:100DD000B8F1000F10D0E17804F10C000144E07884
:100DE00004F10C02CDE9002002913B4605AA04F56E
:100DF0008B71286900F0D2FCE0783844801C089997
:100E000008440DB0BDE8F08F2DE9FE4F05460E46B3
:100E100017461C46DDE90D9ADDF83080204600F0CB
:100E2000C1F983465B463A46314628468DE80007BD
:100E3000FFF71AFFBDE8FE8F2DE9F04705460C4687
:100E400016461F46DDF8208000202070E07810282C
:100E500027D2DFE800F0080927485C646C747C94B2
:100E6000A3B8C9F9FAF600BFFD2E0CD10220E0703C
:100E70000020E870AE70207B20F00100207328462F
:100E800000F0B0FD0DE0FE2E0BD10220E07000203E
:100E9000E870AE70207B40F001002073284600F01F
:100EA000A1FD3DE1207850B16078401C6070204683
:100EB000FFF742FD002020700120E07012E0EE708C
:100EC000002020713146284600F098FD207B00F07C
:100ED000010028B10020287168710520E07001E050
:100EE0000320E0701CE12E71287920F0010038B158
:100EF0002046FFF721FD002020700120E0700FE167
:100F00003146284600F07AFD0420E07008E16E7159
:100F10003146284600F072FD0520E07000E1AE7118
:100F20003146284600F06AFD0620E070F8E0EE71D8
:100F30003146284600F062FD0720E070F0E02E7296
:100F40003146284600F05AFD0820E070E8E0A86825
:100F500066F31F20A8603146284600F04FFD207B35
:100F600000F0010040B1E878002802DD0B20E070BD
:100F700004E00C20E07001E00920E070D0E0A868F7
:100F8000000A40EA0621A86861F31F20A8603146E4
:100F9000284600F033FD0A20E070C1E0A868000A8E
:100FA00040EA0641A86861F31F20A8603146284640
:100FB00000F024FDE878002802DD0B20E07001E05D
:100FC0000C20E070ACE02179481C207105F10C0088
:100FD00046543146284600F011FD2079E9788842D0
:100FE00001D10C20E0709BE0A968080A00F0E4F849
:100FF0008146B9F1000F02D099F8040000E000200A
:1010000082465146284600F0F9FC2878B04202D0CA
:101010000E20E07001E00D20E07085F81461B9F158
:10102000000F0DD0207999F80610884208DA99F857
:1010300006202379D11A05F10C029818FFF7EBF876
:101040006EE03AE001E0FFE700BFE0780E2803D051
:101050002888B6EB202F02D00220207001E001206A
:10106000207040F215104655287900F0010048B173
:101070000F20E0700D206073207802281CD0002023
:10108000207019E0206970B12069006B30B1A86848
:10109000010A2069026B2046904720B92078022877
:1010A00001D0032020700120E0702FB140F2231204
:1010B00029463846FFF796F832E0607BC0F10D0113
:1010C00005F58B704654607B401E6073607B30BBBF
:1010D0002A46D4E9040100F0ADFB8146B9F1000FC6
:1010E0000BD12069006B40B1A868010A2069026B2E
:1010F0002046904708B14FF00109B9F1000F02D026
:101100000120207001E0032020700120E0702FB149
:1011100040F2231229463846FFF764F800BF00BFAB
:1011200000BF2078012808D1A8796071208908B90A
:10113000002060812089401C20810FB1E878F87080
:10114000B8F1000F12D0E07888F80300207988F811
:1011500004006079401C88F805002089A8F8080080
:10116000A078A8F80A00207B88F80C000020A07066
:101170002078022808D13FB195F8141140F21510DB
:10118000405D41EA002038802078BDE8F08700000B
:10119000014640F223104843014A104470470000C2
:1011A000C8010020014601EB4100024A02EBC000E9
:1011B000704700006801002030B50146002203237B
:1011C00016E0541C1C44600800EB4004114D55F817
:1011D00024408C4201D9431E0AE000EB40040D4D2F
:1011E00055F824408C4201D2024601E0024601E05B
:1011F0009A42E6D300BF02EB4200064C54F82000AE
:10120000884201D0002030BD02EB4200014C04EBCB
:101210008000F8E7502600082DE9F04FB1B00546F0
:101220000E4617461C46DDE93CABDDE93A890F2244
:10123000414604A8FFF708FD0F2249460DF11F00A3
:10124000FFF702FD0F2251460DF12E00FFF7FCFCC7
:101250000F2259460DF13D00FFF7F6FC0F2213A8AF
:101260003E99FFF7F1FC0F220DF15B003F99FFF76C
:10127000EBFC0F220DF16A004099FFF7E5FC0F220D
:101280000DF179004199FFF7DFFC0F2222A8429966
:10129000FFF7DAFC0F220DF197004399FFF7D4FC1A
:1012A0000F220DF1A6004499FFF7CEFC0F220DF19D
:1012B000B5004599FFF7C8FCB42204A904F10C005D
:1012C000FEF790FF207A00F50070A060B320B421F3
:1012D00000913B463246CDE9011029462046FFF7F2
:1012E00093FD31B0BDE8F08F2DE9F04705460C467F
:1012F000E678A078FE281AD14FF000090527A078DB
:1013000028706E70A079A870E079E870207A287152
:101310002089000A6871E27804F10C01A81DFEF72B
:1013200061FFE819401CE17800EB01082FE031462D
:1013300004F10C00FFF704FB06460927A07828708B
:101340006E702079A8706079E870A0792871E079D2
:101350006871207AA8712089000AE871A068000CE1
:101360002872A068000E6872324604F10C0105F183
:101370000A00FEF737FFE819401C00EB0608207949
:1013800000F0010008B10D2000E000208146207827
:1013900088F800002088001288F80100B9F1000FD9
:1013A00006DD4A4604F58B7108F10200FEF71AFFCC
:1013B000F81C30444844BDE8F0872DE9F84F8046DA
:1013C0000C4616461D4600BF4046FFF7EBFE814621
:1013D0004046FFF7DDFE82463346224649460095E9
:1013E000FFF72AFD0746022F01D0032F1ED14046EA
:1013F000FFF7CEFE82464046FFF7D4FE81464846C0
:10140000FFF79AFA002089F80000012089F803000C
:10141000FD2C08D1022089F8030000208AF803007F
:10142000504600F0DFFA0020BDE8F88F3846FBE7B1
:101430002DE9F34FC1B08268C4680569D0F814C0C3
:101440008369C669076AD0F82480CDF8008100213D
:1014500006E0DDF8088158F821804DF82180491C0C
:101460001029F6DB10214DE0A1F102085DF828807B
:101470004FEA5849A1F102085DF8288049EAC838C6
:10148000A1F102095DF829904FEAD94AA1F10209B8
:101490005DF829904AEA493988EA0908A1F1020968
:1014A0005DF8299088EA9929A1F107085DF828805C
:1014B000C844A1F10F095DF829904FEAD91AA1F1AA
:1014C0000F091DF829904AEA4969A1F10F0A5DF850
:1014D0002AA04FEA9A4BA1F10F0A5DF82AA04BEA25
:1014E0008A3A89EA0A09A1F10F0A5DF82AA089EA75
:1014F000DA09C144A1F110085DF82880C8444DF80C
:101500002180491C4029AFDB002149E04FEA931AB2
:101510004AEA836A4FEAD32B4BEA435B8AEA0B0A17
:101520004FEA536B4BEAC31B8AEA0B0ADDF800B1A2
:10153000D34403EA060A27EA030E8AEA0E0ADA44CB
:10154000DFF8C8B05BF821B0DA445DF821B00AEBEF
:101550000B084FEA920A4AEA827B4FEA523A4AEA79
:10156000C24A8BEA0A0B4FEA925A4AEA822A8BEA6B
:101570000A0B02EA040A02EA050E8AEA0E0A04EAE3
:10158000050E8AEA0E0A0BEB0A09409737461E46FB
:101590000CEB0803AC462546144608EB0902491C2F
:1015A0004029B3DBD0F808809044C0F80880D0F818
:1015B0000C8008EB0409C0F80C90D0F8108008EB00
:1015C0000509C0F81090D0F8148008EB0C09C0F899
:1015D0001490D0F8188008EB0309C0F81890D0F8E0
:1015E0001C8008EB0609C0F81C90D0F8208008EB9E
:1015F0000709C0F82090D0F82490DDF80081C1449C
:10160000C0F8249043B0BDE8F08F000050250008DA
:101610002DE9F04192B004460E462088C0F3C5087B
:10162000C8F1770000F03F00451C04F10807802056
:101630008DF8000047210DF10100FEF7ECFD217847
:10164000E81D0DF800102088C0F30721A81D0DF833
:1016500000102068C0F30741681D0DF800102068D5
:10166000000E291D0DF801002179E81C0DF800106D
:10167000A088C0F30721A81C0DF800106068C0F313
:101680000741681C0DF800106068000E0DF8050099
:1016900005F108026946204600F034F8F878307009
:1016A000B87870707878B0703878F070F8793071F8
:1016B000B879707112B0BDE8F081000000210160BE
:1016C000416008498160084AC260084A0261084ACC
:1016D0004261084A8261084AC261084A0262084AB5
:1016E0004262704767E6096A85AE67BB72F36E3C7B
:1016F0003AF54FA57F520E518C68059BABD9831FDD
:1017000019CDE05B2DE9F04F91B0044689461546AE
:10171000CA46D4F800B0206800EBC50020602068FD
:10172000584502D26068401C6060CBF3C50630E0CB
:10173000C6F14007BD4200D22F4604F128018819A6
:101740003A465146FEF74EFD3E44BA44ED1B402E4C
:101750001ED104F1280000904FF000080FE0009A1D
:1017600002EB880001AA02EB8801C2780A70827835
:101770004A7042788A700278CA7008F10108B8F19C
:10178000100FECDB01A92046FFF752FE002600BF38
:1017900000BF002DCCD111B0BDE8F08F2DE9F0478E
:1017A0009CB004460D4616461F46DDE9259ADDF835
:1017B00090801CB1207800F0010018B900201CB006
:1017C000BDE8F08760782870D4E90201CDE9000116
:1017D0000098C5F80100BDF80400A5F80500D4E99B
:1017E0000220521C40F10000C4E9022002A8FFF7C9
:1017F00065FF202204F1100102A8FFF783FF3A469B
:10180000314602A8FFF77EFF4A46414602A8FFF78D
:1018100079FF0222514602A8FFF774FF07222946EA
:1018200002A8FFF76FFFE91D02A8FFF7F1FE0D20E8
:10183000C5E700002DE9F04FA1B005460C4617465C
:101840001DB9012021B0BDE8F08F07F1020A07F5AC
:101850008B7808F1070B06A8FFF730FF202205F16F
:10186000100106A8FFF74EFF0A22514606A8FFF70F
:1018700049FFFA7807F10C0106A8FFF743FF02229F
:1018800007F58A7106A8FFF73DFF0722414606A823
:10189000FFF738FF04A906A8FFF7BAFE062259464B
:1018A00004A8FEF7C3FC20B1022085F83400002014
:1018B000C8E798F80090002102910391D8F8010040
:1018C0000290B8F80500ADF80C0024B9032085F8A3
:1018D00034000020B6E7002618E0F97906EBC602CE
:1018E000A01C1044407881420ED1397A06EBC60222
:1018F000A01C10448078814206D106EBC601A01CD2
:10190000405C484500D104E0701C86B22088B0429B
:10191000E3DC00BF2088B0422CD12088102804DBF3
:10192000042085F8340000208CE72D4BDDE90220EF
:10193000D11840F10000D5E90223891A984104D258
:10194000052085F8340000207CE7F97906EBC60213
:10195000A01C10444170397A06EBC602A01C10444A
:10196000817006EBC601A01C00F801902088401C85
:10197000208019E000210091019106EBC601A01C16
:10198000084450F8031F00918088ADF80400DDE999
:101990000232DDE90010C91A904104D3062085F80F
:1019A000340000204EE700BF06EBC601A01C08442F
:1019B000D8F8011040F8031FB8F805108180D5E968
:1019C0000220DDE90231D21A884103D2DDE90201A9
:1019D000C5E90201012085F8340000BF32E70000AC
:1019E000808D5B0008B50021009100BF4FF6FF71AC
:1019F000009100BFBDF80010018008BD38B5044655
:101A00000D462088009069462846FEF7B6FFBDF8CF
:101A10000000208038BD00002DE9F04103460D464E
:101A2000164600240027A0462A48006800F4E0601B
:101A3000B0F5E06F03D100BF4FF0040830E0254857
:101A4000006800F4E060B0F5C06F03D101274FF0EB
:101A5000030825E01F48006800F4E060B0F5A06FBF
:101A600002D10227B8461BE01A48006800F4E06083
:101A7000B0F5806F03D103274FF0010810E015483F
:101A8000006800F4E060B0F5407F03D104274FF018
:101A9000000805E04FF4A06000F020F80227B846E7
:101AA000C7F1040005FA00F4C8F104010F20C84092
:101AB0003040044324010848C45403F01F010120AE
:101AC00088405911890001F1E021C1F80001BDE809
:101AD000F08100000CED00E000E400E00249014369
:101AE000024A1160704700000000FA050CED00E0AA
:101AF0002DE9F04F8CB0064600200A903EA090E8F9
:101B0000004CC068CDE905BECDF810A007900FF2DB
:101B1000EC0ADAE9000ACDE9020A0FF2E00ADAE992
:101B2000000ACDE9000A38480068C0F381000B9034
:101B30000B9820B1012804D0022828D103E03349B2
:101B400027E0334925E03048001F006800F03F07D8
:101B50002D48001F0068C0F3881C2B48001F006838
:101B6000C0F30140401C4FEA40092748001F0068AD
:101B700000F48008B8F5800F01D1254B00E0234B1D
:101B8000B3FBF7F000FB0CF0B0FBF9F101E01F49EB
:101B900000BF00BF1C480068C0F3031404A8055D23
:101BA00021FA05F218480068C0F3822402A8055DF6
:101BB00022FA05F0099014480068C0F342341DF879
:101BC000045022FA05F0089036B1012E06D0022EFC
:101BD00006D0032E0AD106E00A9108E00A9206E038
:101BE00009980A9003E008980A9000E000BF00BF3F
:101BF0000A980CB0BDE8F08F000000000000000063
:101C00000102030406070809083802400024F40012
:101C100040787D01074A02EB9011D1F8001800F0DE
:101C20001F0301229A401143024B03EB9012C2F8AA
:101C30000018704700300240074A02EB9011D1F8BB
:101C4000001800F01F0301229A409143024B03EB5E
:101C50009012C2F80018704700300240074A02EBA9
:101C60009011D1F8001800F01F0301229A4011438F
:101C7000024B03EB9012C2F800187047003002408C
:101C80002DE9F047ADF5667D00F074FA8A490860E9
:101C90000C208DF89403894890ED000AFEF7B0FC03
:101CA000F2EE040A20EE200A8DEDD90A834890ED69
:101CB000000AFEF7FDFBF2EE040A20EE200A8DED8D
:101CC000DA0A7E4890ED000ABDEEC00A10EE100A56
:101CD0000A2190FBF1F201FB120000EE100AB8EEAF
:101CE000C00A8DEDDB0A7548D0ED000A9FED741A2D
:101CF00070EE810AB0EE600AFEF782FCF2EE040A92
:101D000020EE200A8DEDDC0A6C48D0ED000A9FED34
:101D10006C1A70EE810AB0EE600AFEF7C9FBF2EEB3
:101D2000040A20EE200A8DEDDD0A644890ED000AD9
:101D3000BDEEC00A10EE100A0A2190FBF1F201FB81
:101D4000120000EE100AB8EEC00A8DEDDE0A5B4804
:101D5000D0ED000A9FED5B1A70EE810AB0EE600ACA
:101D6000FEF74EFCF2EE040A20EE200A8DEDDF0AAB
:101D70005248D0ED000A9FED531A70EE810AB0EE82
:101D8000600AFEF795FBF2EE040A20EE200A8DEDC4
:101D9000E00A4A4890ED000ABDEEC00A10EE100AB3
:101DA0000A2190FBF1F201FB120000EE100AB8EEDE
:101DB000C00A8DEDE10A4148D0ED000A9FED421ABC
:101DC00070EE810AB0EE600AFEF71AFCF2EE040A29
:101DD00020EE200A8DEDE20A3848D0ED000A9FED92
:101DE0003A1A70EE810AB0EE600AFEF761FBF2EE7D
:101DF000040A20EE200A8DEDE30A304890ED000A37
:101E0000BDEEC00A10EE100A0A2190FBF1F201FBB0
:101E1000120000EE100AB8EEC00A8DEDE40A274861
:101E200090ED000ADFED290A30EE200A80ED000A6D
:101E30004FF000080126474690ACD9AD95F9309097
:101E40008DF83C903022294603A8FEF7FDFE312292
:101E500003A904F10C00FEF7C5F9207A00F58070A3
:101E6000A0603420312100913B463246CDE901107B
:101E700041462046FEF7C8FF00BF710210A8FEF7DA
:101E8000CAF990A910A8FFF72FFA824600F072F95C
:101E900009490968401A0E490860514610A800F027
:101EA00031FB00F067F904490968401A09490860E4
:101EB0000DF5667DBDE8F0870C00002018000020BD
:101EC000CDCCCC3DCDCC4C3E9A99993E6F12833A05
:101ED00010000020140000202DE9F043ADF20C4D5D
:101EE00021A00168D69121A00068CDF8670320A049
:101EF0000088ADF87603002501262F460DF50D78F4
:101F0000D6AC04F1A50004F1960104F1870204F1B6
:101F10007803CDE90832CDE90A103C383C393C3A27
:101F20003C3BCDE90432CDE906103C383C393C3A23
:101F30004346CDE90042CDE902103A4631462846F3
:101F4000FFF76AF971020DA8FEF765F98DA90DA8D2
:101F5000FFF7CAF9814649460DA800F0D3FA0DF201
:101F60000C4DBDE8F083000073696E00636F730071
:101F70005000000070B504460B46CD1701EB957577
:101F8000AD10A1EB8505AE000F25B540E843CD1798
:101F900001EB9575AD10A1EB8505AD0004FA05F2D6
:101FA000CD1701EB9575AD1035B1012D0ED0022D79
:101FB00018D0032D2ED121E0184B1B680340174D7C
:101FC0002B602B461B6813432B6024E0134B1B1D17
:101FD0001B680340114D2D1D2B602B461B681343BE
:101FE0002B6018E00D4B08331B6803400B4D083580
:101FF0002B602B461B6813432B600CE0074B0C3304
:102000001B680340054D0C352B602B461B681343A2
:102010002B6000E000BF00BF70BD00000838014029
:10202000002000213A4A126842F48032384B1A608C
:1020300000BF401C364A126802F4003119B94FF64D
:10204000FF729042F5D1324A126802F400320AB9A6
:1020500000BFFEE72E4A4032126842F080522C4BFD
:1020600040331A602B4A126842F44042294B1A60EE
:10207000274A08321268264B08331A601A4612683B
:1020800042F400421A601A46126842F4A0521A60E2
:10209000214A1B1F1A601A1F126842F080721B1F10
:1020A0001A6000BF1A4A126802F00072002AF9D0C2
:1020B000184A126842F48032164B1A6000BF154A63
:1020C000526802F48032002AF9D0124A126842F4AF
:1020D0000032104B1A6000BF0E4A526802F4003200
:1020E000002AF9D00A4A0832126822F00302084B8B
:1020F00008331A601A46126842F002021A6000BFE2
:10210000034A0832126802F00802002AF8D0704729
:1021100000380240007000401964400910B5FFF714
:102120007FFF10BD10B5114800681149B0FBF1F4F4
:10213000601EB0F1807F01D301200FE0601E4FF0E0
:10214000E02148610F214FF0FF30FEF7C9F8002071
:102150004FF0E021886107200861002008B100BF2E
:10216000FEE70021481EFEF7BBF810BD200000204E
:1021700040420F0001480068704700000000002046
:10218000CA43026170470246D06800EA0103106941
:10219000084010B10BB1012070470020FCE700009F
:1021A0002DE9F04704460D460027B846B9460026FB
:1021B0003349601A8C4235D00CDC32482044E8B1F7
:1021C000B0F5806F1FD0B0F5006F21D0B0F5406F33
:1021D00032D122E0B0F5806F29D0B0F5184F03D08E
:1021E000B0F51C4F28D104E00320FFF781FC07461F
:1021F00023E00320FFF77CFC07461EE00220FFF7E8
:1022000077FC074619E00220FFF772FC074614E04E
:102210000220FFF76DFC07460FE00220FFF768FC85
:1022200007460AE00220FFF763FC074605E00220AC
:10223000FFF75EFC074600E000BF00BFE06800F467
:10224000004070B1780000EB5500B0FBF5F64FF69A
:10225000F07006EA0008C6F3420948EA0900A060E7
:102260000CE007EB5500B0FBF5F64FF6F07006EA10
:10227000000806F00F0948EA0900A060BDE8F087F1
:102280000078004000BCFFBF01464868C0F308006A
:102290007047C1F3080242607047000010B5044661
:1022A0003349601A8C424DD00CDC32482044E0B1F6
:1022B000B0F5806F22D0B0F5006F31D0B0F5406F2F
:1022C00052D136E0B0F5806F45D0B0F5184F03D04D
:1022D000B0F51C4F48D11AE040F60410FFF7BEFCE1
:1022E00040F60410FFF7A8FC3FE040F61100FFF7AE
:1022F000B5FC40F61100FFF79FFC36E040F61200F7
:10230000FFF7ACFC40F61200FFF796FC2DE040F61C
:102310000510FFF7A3FC40F60510FFF78DFC24E045
:1023200040F61300FFF79AFC40F61300FFF784FC19
:102330001BE040F61400FFF791FC40F61400FFF795
:102340007BFC12E040F61E00FFF788FC40F61E0002
:10235000FFF772FC09E040F61F00FFF77FFC40F634
:102360001F00FFF769FC00E000BF00BF10BD0000C8
:102370000078004000BCFFBFC16841F40051C1605B
:10238000704710B5024602EB9110006801F01F047F
:102390000123A340184008B1012010BD0020FCE734
:1023A00010B504464FF44060FFF734FC4FF4406032
:1023B000FFF730FC41F20410FFF72CFC4FF40072E1
:1023C00007212948FEF770FB4FF480620721264859
:1023D000FEF76AFB4FF40073012202212248FEF748
:1023E0009CFB4FF48063012202211F48FEF795FBFE
:1023F0004FF40073022200211B48FEF7B5FB4FF497
:102400008063022200211848FEF7AEFB1748FFF751
:1024100045FF21461548FFF7C3FE0021134800F091
:1024200050F80021114800F08BF800210F4800F00F
:1024300077F80E48FFF7A0FF08210C4800F078F865
:1024400004210A4800F045F8022211462520FFF732
:10245000E3FA40F20531054800F00AF84FF4417103
:10246000024800F005F810BD0000024000100140D5
:1024700010B500EB9112126801F01F040123A34074
:102480001A4300EB91131A6010BD70B50246002389
:102490000024C1F38910105801F01F060125B54032
:1024A00000EA050302EB91500068C1F304460125E0
:1024B000B54000EA050414B10BB1012070BD002045
:1024C000FCE7C26822F4C062C260C2680A43C2600C
:1024D00070470A460021C16821F004011143C16020
:1024E0007047000010B5044621460548FFF7D1FEAD
:1024F00000BF07210248FFF744FF0028F9D010BDB4
:102500000010014070B504460D4603E014F8010BBD
:10251000FFF7E8FF281EA5F101018DB2F6D170BDCD
:10252000026922F44052026102690A430261704763
:102530000A460021C16821F008011143C1607047BB
:10254000C26822F48052C260C2680A43C260704707
:10255000982F8A4291443771CFFBC0B5A5DBB5E90E
:102560005BC25639F111F159A4823F92D55E1CAB82
:1025700098AA07D8015B8312BE853124C37D0C5510
:10258000745DBE72FEB1DE80A706DC9B74F19BC158
:10259000C1699BE48647BEEFC69DC10FCCA10C2448
:1025A0006F2CE92DAA84744ADCA9B05CDA88F9762C
:1025B00052513E986DC631A8C82703B0C77F59BF96
:1025C000F30BE0C64791A7D55163CA0667292914C2
:1025D000850AB72738211B2EFC6D2C4D130D38535F
:1025E00054730A65BB0A6A762EC9C281852C729221
:1025F000A1E8BFA24B661AA8708B4BC2A3516CC74F
:1026000019E892D1240699D685350EF470A06A1087
:1026100016C1A419086C371E4C774827B5BCB034D6
:10262000B30C1C394AAAD84E4FCA9C5BF36F2E6874
:10263000EE828F746F63A5781478C8840802C78C03
:10264000FAFFBE90EB6C50A4F7A3F9BEF27871C606
:1026500001000000343131000000000002000000E1
:10266000B3B4B4000000000003000000CAFFFF0084
:102670000000000004000000822020000000000094
:10268000000000006E83F9A22915444ED15727FCA3
:10269000C0DD34F5999562DB4190433CAB6351FE5C
:1026A000C0260008000000202C0000000C090008D3
:1026B000EC2600082C0000202C0A00001C09000851
:1026C000000000000000000000000000000000000A
:1026D00000000000000000000000000000000000FA
:0C26E00000C2EB0B000000000000000036
:04000005080001AD41
:00000001FF
