:020000040800F2
:10000000780400204501000851110008FD10000887
:100010004D110008DD0F00085F1600080000000009
:10002000000000000000000000000000BD120008F9
:10003000E10F000800000000C5110008D1130008FE
:100040005F0100085F0100085F0100085F01000810
:100050005F0100085F0100085F0100085F01000800
:100060005F0100085F0100085F0100085F010008F0
:100070005F0100085F0100085F0100085F010008E0
:100080005F0100085F0100085F0100085F010008D0
:100090005F0100085F0100085F0100085F010008C0
:1000A0005F0100085F0100085F0100085F010008B0
:1000B0005F0100085F0100085F0100085F010008A0
:1000C0005F0100085F0100085F0100085F01000890
:1000D0005F010008351400085F0100085F01000897
:1000E0005F0100085F0100085F0100085F01000870
:1000F0005F0100085F0100085F0100085F01000860
:100100005F0100085F0100085F0100085F0100084F
:100110005F0100085F0100085F0100085F0100083F
:100120005F0100085F0100085F0100085F0100082F
:10013000DFF80CD000F0BCFC00480047B51A0008FE
:10014000780400200648804706480047FEE7FEE79F
:10015000FEE7FEE7FEE7FEE7FEE7FEE7FEE7FEE777
:10016000D51300083101000840EA01039B0703D0C2
:1001700009E008C9121F08C0042AFAD203E011F8E6
:10018000013B00F8013B521EF9D27047D2B201E0A8
:1001900000F8012B491EFBD270470022F6E710B58C
:1001A00013460A4604461946FFF7F0FF204610BDE5
:1001B00010B5002200E0521C835C8C5CA34201D18C
:1001C000002BF8D1D8B2E1B2401A10BD0FB400B57F
:1001D0008DB010A909900B9000914FF0FF300A905C
:1001E00000200C9005480690054807906A4609A82B
:1001F0000F9900F0B7FA0DB05DF814FB8107000805
:100200009F0700082DE9FF5FD2E901A74FF0000822
:10021000916999461446DDF838B0464601988847FA
:10022000054659EA0B0005D009E0A169761C019842
:1002300088470546216A284688470028F5D1681C6A
:1002400003D05FEACA7005D015E04FF0FF3004B06C
:10025000BDE8F09F2068011D2160D0F800800AE011
:100260005FEACA7001D108F8015BA169761C7F1EA4
:10027000019888470546002F1ADD681C18D0B9F18F
:10028000000F0DD0E81705EBD060421120F01F00E1
:1002900059F822102A1A012090400142E0D107E0CB
:1002A000BBF1000FDCD1216A284688470028D7D04F
:1002B000E16901988847BBF1000F07D1002E05DDE9
:1002C0005FEACA7002D1002188F80010A068B84225
:1002D00003DDBBF1000F03D017B16FF00100B6E7EB
:1002E0003046B4E72DE9FF4F087883B09946FF28E0
:1002F00005D0491C2D2804D00024002008E000204F
:100300000BE00124F9E700EB800003EB4000491CFF
:100310000B78FF2BF7D104B14042002302931478ED
:1003200019461D462D2C01D02B2C04D1521C2D2CEE
:1003300013D000240294AA461478FF2C0FD00A256B
:10034000A3FB057801FB05814FF0000C03FB0C11AA
:10035000521CE3194AEB0101EEE70124EAE781446C
:1003600053EA010002D019F5C87F06DA039800218C
:10037000C0E9001107B0BDE8F08F0025AE4E2F4652
:10038000DFF8B882184600F051FBCDE90001B9F161
:10039000000002DAC9F1000400E004460023A74A85
:1003A0001AEB030B42EB045A12E0E00707D02A468F
:1003B00033463846414600F058FA074688462A46F2
:1003C00033461046194600F050FA05460E466410B2
:1003D000002CEAD1DDE90001B9F1000F5A4653467D
:1003E00006DA00F0B4FA3A46434600F0B0FA05E007
:1003F00000F03BFA3A46434600F037FA029A0AB157
:1004000081F00041039AC2E90001B3E72DE9FF4FF3
:100410001F468DB0D7E901464FF0FF382E204546E4
:100420004FF000090B90B9696D1C0E988847396A26
:10043000824688470028F6D1BAF1FF3F0AD024F45B
:10044000D064002E11DDBAF12B0F08D0BAF12D0FB8
:100450000BD102E0404611B08DE744F48064B969E5
:100460006D1C0E9888478246761E6946600501D548
:100470002D2000E02B208DF8000001F1010B0DF183
:10048000200809E0B9696D1C0E98884782460F98CC
:1004900044F40074761E0560002E02DDBAF1300FC0
:1004A000F0D00B998A453ED144F0800406E00F99C4
:1004B000681CA9F1010944F400740860B9696D1C55
:1004C000761E0E98884782463028F0D02BE00B9994
:1004D0008A4505D1200603D444F08004761E18E036
:1004E000504601F0A7F908B30DF11301761E44F44C
:1004F00000748B4508D2AAF130000BF8010B2006DE
:1005000007D5A9F1010003E0200602D409F101009A
:100510008146A00502D50F99681C0860B9696D1C59
:100520000E9888478246002ED1DC53E0002E51DD24
:10053000BAF1650F02D0BAF1450F4BD1A00549D5EC
:10054000B9696D1C24F44074761E0E988847824663
:10055000002E0CDD2B2804D0BAF12D0F07D144F466
:100560008074B9696D1C0E9888478246761EE00536
:1005700001D52D2100E02B2108F8011BCDF82C809E
:1005800021E00DF12901761E44F4007488450CD257
:10059000AAF1300010F0FF0088F8000002D10B999A
:1005A000884509D908F1010806E0E00501D524488D
:1005B00001E042F20F708146B9696D1C0E988847C0
:1005C00082460F980560002E04DD504601F032F996
:1005D0000028D6D1F9690E988847FF208BF80000D3
:1005E00088F800000020069007904B466A4608A94C
:1005F00006A8FFF777FEA00502D46FF001002AE7F6
:1006000014F0240F0AD0E00714D1DDE9061238688F
:10061000031D3B600068C0E900120BE0DDE9060144
:1006200000F029FA0146E00704D13868021D3A605B
:100630000068016028460EE7000014400000F03F0B
:10064000F1D8FFFFF0B480EA0102D40F4200B2EB10
:10065000410F02D20246084611464A0042D0C30D5D
:10066000DDB2C1F3C752AD1A202D35DAC1F3160140
:1006700041F4000204B15242C5F1200602FA06F12B
:100680002A411044B3EBD05F23D0C4B1012DA0EBBD
:10069000C35009DCF0BC4FF0004202EAC352DBB2A7
:1006A00000F5000000F095B8400000F1807000EB0C
:1006B000C350A0F1807040EAD170490009E04908B8
:1006C00041EAC071A0EBC35000F50000400800EB08
:1006D000C350F0BC00F074B86142012202EB41014A
:1006E000001BF6E7F0BC704781F00041AAE780F0FC
:1006F0000040A7E780EA010210B502F00043400085
:1007000022D04A001FD0010E01EB1261C0F3560047
:10071000C2F3560240F4000042F40002A0FB0220A3
:1007200000047F39140400D0401C50EA124001D468
:100730004000491EC2B20C0604EBD010401C400819
:10074000802A02D003E0002010BD20F00100002923
:1007500000DA0020184310BD0268114413780160CC
:1007600018467047D1600449516104491162002163
:100770001161114600F0B4B959070008D50A000804
:10078000426842B1016811F8013B23B1521EC0E931
:100790000012184670470121C160881E70474268E8
:1007A0005AB1C368016843B983688B4205D0491EBA
:1007B000521CC0E90012002070474FF0FF30704714
:1007C0000029A8BF7047401C490008BF20F0010065
:1007D000704710B4B0FA80FC00FA0CF050EA010443
:1007E00004BF10BC704749B1CCF1200421FA04F4D5
:1007F00011FA0CF118BF012121430843A3EB0C01AE
:10080000CB1D4FEA00614FEA102042BF002010BC10
:10081000704700EBC35010440029A4BF10BC7047C0
:10082000401C490008BF20F0010010BC704710B503
:1008300041000CD0C0F3C751962908DC7E2909DCA1
:1008400006DB410204D000F0004040F07E5010BDB5
:10085000002010BDC1F19604C4F1200100FA01F19D
:10086000E040FFF7ADFFA04010BD2DE9FE4F81EA4B
:10087000030404F0004421F0004100944FF0000B09
:1008800023F0004350EA01045ED052EA03045BD037
:10089000C3F30A54C1F30A552C44A4F2F33401946F
:1008A000A0FB0254C1F3130141F48011C3F31303FD
:1008B00043F4801301FB024400FB034E840A970AB1
:1008C00044EA815447EA8357A4FB076802958D0ADE
:1008D00005FB07854FEA932C04FB0C542705029D6A
:1008E0004FEA065847EA1637B5EB08056EEB070CDA
:1008F000870E920E47EA811742EA8312A7FB020194
:10090000B6EB0B0164EB00042B0D43EA0C335E18CD
:1009100044EB1C50DA465146E7FB0201C5F31304D1
:100920004FEA0B3343EA14534FEA0432019C43EA83
:100930000603A4F10C040294009CCDE900B400F07D
:10094000BEFA03B0BDE8F08F00200146F9E72DE9BB
:10095000F04D81EA030404F0004B21F000451446F9
:100960004FF0000A23F0004150EA050220D054EA7B
:1009700001021DD0C5F30A570246C5F31303C1F3A4
:100980001300C1F30A5640F4801543F48013A7EB1B
:100990000608101BD64608F2FD3873EB050002D39B
:1009A00008F1010801E092185B41B8F1000F03DA89
:1009B00000200146BDE8F08D00204FF4801106466E
:1009C00084460EE0171B73EB050705D3121B63EB80
:1009D000050306434CEA010C49084FEA300092181F
:1009E0005B4150EA0107EDD152EA030012D082EADE
:1009F000040083EA0501084305D0101BAB4106D271
:100A00000122002306E000224FF0004302E06FF0D5
:100A1000010253101AEB06004CEB085110EB0A00D0
:100A200041EB0B01BDE8F04D00F03ABA0EB540F2D3
:100A3000334202920022CDE90022134600F03FFA31
:100A400003B000BD00F0004220F00040C10DC0F333
:100A5000160040F400007F2901DA00207047962933
:100A600003DCC1F19601C84001E096398840002AB4
:100A7000F4D04042704701F0004330B421F000410F
:100A800050EA010206D00A0DA2F56072C1F313010B
:100A9000002A02DC30BC00207047440F44EAC10445
:100AA000C100E01830BC00EBC250FFF789BE000067
:100AB000064C074D06E0E06840F0010394E80700AB
:100AC00098471034AC42F6D3FFF736FBD41E00082B
:100AD000F41E0008C0B24FF4F05100F06BBA0000F1
:100AE0002DE9F34F8BB04FF0000801F10C000C46DC
:100AF0004FF0010B46460DF1080A01906269012191
:100B000001989047051E2DD0252D2CD0216A8847AD
:100B1000C0B16269012101989047216A8847002885
:100B2000F7D1411E62690198904700E0761CA169E7
:100B30000B988847216A88470028F7D1E1690B980C
:100B40008847DBE7A1690B9888470746A84201D18F
:100B5000761CD3E7E1690B9888477F1C02D1B8F176
:100B6000000F6FD046E1002762693D463946019883
:100B700090472A2804D162690121019890470125F4
:100B8000DFF884926269012101989047A0F1300159
:100B90000A290AD24F45E5DC07EB870100EB410744
:100BA000303FDFD445F01005ECE7E90601D46FF0E3
:100BB00000476C280AD04C2814D0682815D06A2821
:100BC0000DD074281CD07A281AD01DE0626901214A
:100BD000019890476C2802D045F0040514E045F0D8
:100BE00002050DE045F020050AE062690121019847
:100BF0009047682802D045F0080505E045F40065F7
:100C00006269012101989047C4E9015765283DD0E8
:100C100019DC58287AD00CDC452837D004DC25288C
:100C200026D0412831D131E046282FD047282CD179
:100C30002CE05B2877D0612828D063287CD06428FA
:100C400023D15AE0D0E06F2848D008DC66281DD0B8
:100C500067281BD0692821D06E2816D127E070287C
:100C600045D0732868D0752847D078280DD14DE03D
:100C7000A1690B988847054625283FF469AFE169CB
:100C80000B9888476D1C3FF46AAFB3E023466A4671
:100C90006FF001000B99FFF7B9FB9EE045F04000B3
:100CA0006060A80723464FF0000236D43EE0E80714
:100CB0007FF447AF2068011D21600068290501D538
:100CC00006701BE7290701D5068017E7A90703D59A
:100CD000F117C0E9006111E706600FE745F0400039
:100CE0006060A80723464FF0080216D41EE040F6C5
:100CF0000E0125EA0100606016E045F040006060EA
:100D0000A80723464FF00A0207D40FE045F0400041
:100D10006060A80708D5234610226FF001000B99E8
:100D2000AFF3008059E007E0234610226FF0010086
:100D30000B99AFF3008050E04FF000094F464B464F
:100D4000632802D05B2806D040E0E80601D40120E9
:100D5000A06001273AE062690121019890475E286E
:100D600005D14FF001096269494601989047216910
:100D700039B900210A46534643F82120491C082965
:100D8000FADBB0B3216969B9C11700EBD162531125
:100D90000AEB830122F01F02821A01200B689040A7
:100DA00003430B6062690121019890475D28E8D1F7
:100DB000B9F1000F09D00020514651F82020D2434C
:100DC00041F82020401C0828F7DB02AB22460097A0
:100DD0006FF001000B99FFF715FA00280CDA401CA0
:100DE00008D1BBF1000F05D04FF0FF300DB0BDE8CA
:100DF000F08FFFE74046F9E7E90701D108F1010864
:100E000006444FF0000B79E6CCCCCC0C30B480EA31
:100E1000010202F0004530F0004221F0004013D002
:100E200090B1C30DD40DC2F31601C0F31600E41A3D
:100E300041F4000140F400027D34914201D3641C6E
:100E400000E04900002C02DA30BC002070474FF46B
:100E500000000023914201D3891A034340084FEA5E
:100E60004101F7D151B1914202D14FF0004105E06B
:100E700002D24FF0010101E06FF0010103EBC45019
:100E8000284430BCFFF79CBC420005D0C0F3C752D9
:100E90005242914201DC0020704700EBC150704784
:100EA00010B5141E73F1000408DA401C41F1000172
:100EB00092185B411A4301D120F0010010BD2DE9C9
:100EC000F04D92469B4611B1B1FA81F202E0B0FAC0
:100ED00080F22032904600F04EF804460F4640EA79
:100EE0000A0041EA0B0153465A46084313D0114603
:100EF00053EA010019D0C8F14002504600F04AF808
:100F000005460E4650465946424600F034F808431E
:100F100005D0012004E020463946BDE8F08D0020D0
:100F2000054346EAE0762C4337430A986305E40A12
:100F3000A0EB08000022FD0A44EA47540A3002D51B
:100F400000200146E9E7010510196941DDE908457E
:100F500000196941BDE8F04DA2E7C10F80EAE070D9
:100F60000844CA0796230021FFF733BC96230022CA
:100F70001146FFF72EBC202A04DB203A00FA02F1CA
:100F8000002070479140C2F1200320FA03F3194377
:100F900090407047202A04DB203A21FA02F0002119
:100FA000704721FA02F3D040C2F120029140084379
:100FB000194670477F2801D9002208E0064A02EB53
:100FC0005002C007127800D1120902F00F0201206E
:100FD0009040084070470000941E000800BFFEE7E4
:100FE00070472DE9F041024600250026002000232D
:100FF0000024002791F803C00CF00F0591F803C0FE
:101000000CF0100CBCF1000F03D091F802C04CEAB8
:10101000050591F800C0BCF1000F31D01468002024
:101020002BE04FF0010C0CFA00F3B1F800C00CEA11
:1010300003069E4220D183004FF00F0C0CFA03F7F9
:10104000BC4305FA03FC4CEA040491F803C0BCF16C
:10105000280F06D14FF0010C0CFA00FCC2F814C0A6
:101060000AE091F803C0BCF1480F05D14FF0010C24
:101070000CFA00FCC2F810C0401C0828D1D3146040
:10108000B1F800C0BCF1FF0F34DD546800202EE041
:1010900000F1080C4FF0010808FA0CF3B1F800C099
:1010A0000CEA03069E4221D183004FF00F0C0CFA8C
:1010B00003F7BC4305FA03FC4CEA040491F803C0AF
:1010C000BCF1280F05D100F1080C08FA0CF8C2F8A1
:1010D000148091F803C0BCF1480F07D100F1080C4F
:1010E0004FF0010808FA0CF8C2F81080401C0828DC
:1010F000CED35460BDE8F0810161704700BFFEE7C8
:1011000008B50121482000F05FF82020ADF800006C
:1011100010208DF8030003208DF80200694609486D
:10112000FFF75FFF20210748FFF7E6FF2020ADF81B
:10113000000069460448FFF754FF20210248FFF7EA
:10114000DBFF08BD000C01400018014000BFFEE7B6
:101150007047000070B5002100230F22C47804B34B
:10116000154C246804F4E064C4F5E064210AC1F17C
:101170000403CA40447804FA03F1847814402143FC
:1011800009010E4C0678A155047804F01F050124CE
:10119000AC4005786D11AD0005F1E025C5F80041C2
:1011A00009E0047804F01F050124AC40044D0678E2
:1011B000761145F8264070BD0CED00E000E400E03B
:1011C00080E100E07047000029B1064A92690243BD
:1011D000044B9A6104E0034A92698243014B9A618D
:1011E000704700000010024030B5002100220024AA
:1011F00000232D4D6D6805F00C0121B1042905D0A7
:10120000082923D105E0294D056022E0274D05601E
:101210001FE0254D6D6805F47012234D6D6805F4CF
:101220008034022505EB92421CB9214D55430560DF
:101230000BE01D4D6D6805F400351DB11C4D554387
:10124000056002E0194D5543056002E0174D056049
:1012500000BF00BF144D6D6805F0F0010909154D80
:101260006B5C0568DD4045600F4D6D6805F4E0611D
:10127000090A104D6B5C4568DD4085600A4D6D685C
:1012800005F46051C90A0B4D6B5C4568DD40C560D3
:10129000054D6D6805F44041890B074D6B5CC568D1
:1012A000B5FBF3F5056130BD0010024000127A0075
:1012B00000093D002E0000203E000020704710B5C0
:1012C00000F002F810BD00000CB500200190009065
:1012D0003348006840F480303149086000BF30482E
:1012E000006800F4003000900198401C01900098C4
:1012F00018B90198B0F5A06FF1D12948006800F441
:10130000003010B10120009001E000200090009812
:10131000012843D12348006840F0100021490860AB
:101320000846006820F0030008600846006840F0A6
:10133000020008601A484068194948600846406839
:1013400048600846406840F480604860084640684D
:1013500020F47C1048600846406840F4E81048607B
:101360000846006840F08070086000BF0C480068C4
:1013700000F000700028F9D00948406820F0030010
:10138000074948600846406840F00200486000BFD6
:101390000348406800F00C000828F9D10CBD00009B
:1013A0000010024000200240042808D14FF0E02144
:1013B000096941F004014FF0E022116107E04FF0AC
:1013C000E021096921F004014FF0E022116170472A
:1013D0007047000010B51348006840F00100114943
:1013E000086008464068104908400E4948600846B1
:1013F00000680E4908400B4908600846006820F460
:10140000802008600846406820F4FE0048604FF4E1
:101410001F008860FFF753FF4FF000600449086029
:1014200010BD0000001002400000FFF8FFFFF6FEB4
:1014300008ED00E010B540F22551164800F04BF8D9
:1014400030B3144800F002F9C4B2232C0ED1124874
:10145000007858B923201149114A12788854012084
:101460000D49087000200E49087011E00A48007804
:1014700070B90A480A490978445409480078401C60
:1014800007490870084600781E2801DB0020087014
:1014900010BD0000003801402C0000205800002042
:1014A0002D00002021B1828942F40052828104E0A3
:1014B00082894DF6FF731A408281704702460020F0
:1014C000B1F5007F00D100BF13880B400BB10120A4
:1014D00000E00020704770B502460024002300257C
:1014E000002040F66A16B14200D100BFC1F3421598
:1014F00001F01F03012606FA03F3012D02D196899C
:10150000334006E0022D02D1168A334001E0968A6C
:1015100033400C12012606FA04F41688344013B145
:101520000CB1012000E0002070BDF0B5034600249E
:1015300000260025002040F66A17B94200D100BFFE
:101540001846C1F3421401F01F06012707FA06F5F9
:10155000012C01D10C3004E0022C01D1103000E04C
:1015600014301AB107682F43076002E00768AF43E1
:101570000760F0BD2DE9F04786B005460E46002411
:10158000A24600BFA1460027B08900B100BF2F4688
:101590002C8A4CF6FF700440F08804432C82AC89FE
:1015A0004EF6F3100440B08831890843718908432E
:1015B0000443AC81AC8A4FF6FF400440B089044339
:1015C000AC8201A8FFF710FE1F48874202D1DDF868
:1015D00010A001E0DDF80CA0A88900F4004040B1A3
:1015E0000AEBCA0000EB0A1031684900B0FBF1F8C1
:1015F00007E00AEBCA0000EB0A1031688900B0FB73
:10160000F1F86420B8FBF0F004012009642101FB2B
:101610001089A88900F4004040B1322000EBC900D5
:10162000B0FBF1F000F00700044308E0322000EBCB
:1016300009106421B0FBF1F000F00F0004432C818D
:1016400006B0BDE8F08700000038014001468888F8
:10165000C0F308007047C1F308028280704700BFE2
:10166000FEE74100080218BF04200A0E18BF40F030
:1016700001004FF07F4232EA010108BF40F0020052
:10168000012808BF052070470121FFF7FDBB00219D
:101690000846FFF7BBBB6FF05E010807FFF7F4BB1E
:1016A0002DE9F04D0D4614464FF07F41B1EB440F4C
:1016B0009EBF4FF0FF312960BDE8F08D4FF0004034
:1016C00040EA0421C4F3C750783810F01F024A4B97
:1016D0004FEA601CC2F120067B44C4F3C750A0F15E
:1016E00078004FEA601003EB800053F82C3008BFFD
:1016F000D0E901C612D0D0F804C093402CFA06F706
:101700003B4387680CFA02FC27FA06F8C06807FA20
:1017100002F2F0404CEA080C42EA0006A3FB013258
:10172000ACFB01C0A6FB016101EB0C068E4234BF8D
:101730004FF0010C4FF0000CC1186144BCF1000FD8
:1017400002D0814202D903E0814201D2012000E0AF
:101750000020104400F120024FEA92188006CA0CC3
:1017600040EA42304F03C5F80080FFF7F6FB82469F
:101770003846FFF7FBFB6FF01201FFF785FB0746CA
:101780003046FFF7F3FB6FF02501FFF77DFB834643
:1017900039465046FEF756FF5946FEF753FF00F50F
:1017A00000666FF30B0651463046FEF79DFF394643
:1017B000FEF79AFF5946FEF79AFF1049FEF79AFF87
:1017C00007460F493046FEF795FF3946FEF73AFFC8
:1017D00007460C493046FEF78DFF3946FEF732FFCB
:1017E00014F0004F08BFBDE8F08DC8F1805180F0C3
:1017F00000402960BDE8F08D98070000DB0FC92F7D
:1018000022AAFD290000C92F02E008C8121F08C142
:10181000002AFAD170477047002001E001C1121F71
:10182000002AFBD1704700000149086070470000A2
:101830004400002030380A2801D2012070470020DF
:10184000704700002DE9F843044602464F486946B8
:10185000B0EB420F09D94FF0E640B0EB420F94BF16
:1018600000204FF0FF30009030E0494B22F0004064
:10187000834271D947492046FEF73CFFFEF7D7FF68
:101880008046FFF7DFF800F0030000904249404631
:10189000FEF730FF054641494046FEF72BFF06465E
:1018A0003F494046FEF726FF07463E494046FEF7C1
:1018B00021FF2146FEF71BFF3946FEF715FF314693
:1018C000FEF712FF2946FEF70FFF04462546009C4F
:1018D000002C45DB294614F0010F08461CD0FEF70A
:1018E00009FF06463049FEF705FF3049FEF7FFFEC7
:1018F0003146FEF7FFFE2E49FEF7A4FE3146FEF705
:10190000F9FE2946FEF7F6FE2946FEF79BFE14F087
:10191000020F1CD0BDE8F883FEF7ECFE0546254912
:10192000FEF7E8FE2449FEF78DFE2946FEF7E2FEAB
:101930002249FEF787FE2946FEF7DCFE4FF07E5176
:10194000FEF780FE14F0020F08BFBDE8F88380F0B8
:101950000040BDE8F883FFE71046FFF7A1FEB4E7BB
:101960006800B0F17F4F3CBF4FF07E50BDE8F88378
:1019700007D14FF00100FFF757FFBDE8F843FFF72D
:1019800086BE2846BDE8F843FFF77EBEB61F927EAE
:10199000490E494683F9223F1A61342C0020A233B4
:1019A00000A0FD390000C93F336D4C39DA82083C94
:1019B000A0AA2ABEB93AB2BACA9F2A3DDDFFFFBE2D
:1019C00010B56FF00400FFF7EFFC0A4800680A4901
:1019D000B0FBF1F0094908700846007800EB4001BF
:1019E000C1EBC0104FF6FF7101EAC0000449088046
:1019F00010BD00001000002000127A00240000201A
:101A00002600002000B587B001AB02AA03A904A8F4
:101A100000F09CF968B10AA104A8FEF7C9FB40B91F
:101A20000849039808600849029808600749019826
:101A30000860002004900590069007B000BD0000EB
:101A4000504944000000002004000020080000204D
:101A500010B51548006800F0B5F814490860124840
:101A60000068FFF7EFFE114948600F4801684FF02A
:101A70008040FEF73FFE0446FFF7E4FE0B49886016
:101A800009480068FFF7DEFE04464FF08041FEF78C
:101A900031FE0649C860064903480068FEF7D2FDDA
:101AA0000149086010BD00000C0000204800002023
:101AB00045D8203EFFF784FFFFF722FB4FF4E130CB
:101AC00000F072F905E000F005F8FFF7C1FFFFF73D
:101AD00099FFF8E700B599B024A003C8CDE9170134
:101AE00024A103C9CDE9150124A103C9CDE913013E
:101AF00024A103C9CDE91101242224A108A8FEF7DD
:101B000033FB2B4800680190294840680290284820
:101B1000806803902648C0680490264800680590B5
:101B2000254800680690254800680790062217A9F6
:101B3000234800F089F9232208A9214800F084F9FC
:101B4000062215A91E4800F07FF9062213A91C4899
:101B500000F07AF91C2201A9194800F075F9062253
:101B600011A9174800F070F919B000BD4141424277
:101B70004343000043434242414100004444454541
:101B800046460000464645454444000073696E28B9
:101B900078292C636F732878292C636F7328327827
:101BA000292C32636F732878292C502C492C44003F
:101BB0004800002000000020040000200800002051
:101BC000003801402DE9F843044602465248694670
:101BD000B0EB420F09D94FF0E640B0EB420F94BF93
:101BE00000204FF0FF30009030E04C4B22F00040DE
:101BF000834271D94A492046FEF77CFDFEF717FE65
:101C00008046FEF71FFF00F0030000904549404664
:101C1000FEF770FD054644494046FEF76BFD06465B
:101C200042494046FEF766FD074641494046FEF7F9
:101C300061FD2146FEF75BFD3946FEF755FD314655
:101C4000FEF752FD2946FEF74FFD04462546009C4F
:101C5000002C45DB294614F0010F08461ED0FEF784
:101C600049FD05463349FEF745FD3349FEF7EAFCD9
:101C70002946FEF73FFD3149FEF7E4FC2946FEF711
:101C800039FD4FF07E51FEF7DDFC14F0020F08BF66
:101C9000BDE8F88380F00040BDE8F883FEF72AFD38
:101CA00006462749FEF726FD2649FEF720FD314668
:101CB000FEF720FD2449FEF7C5FC3146FEF71AFD6C
:101CC0002946FEF717FD2946FEF7BCFC14F0020F6B
:101CD000E0D1BDE8F883FFE71046FFF7E1FCB4E789
:101CE0006800B0F17F4F09D22846FFF7BAFC0428FC
:101CF00008BFFFF7D0FC2846BDE8F88306D10120D5
:101D0000FFF792FDBDE8F843FFF7C1BC2846BDE8E8
:101D1000F843FFF7B9BC0000B61F927E490E494652
:101D200083F9223F1A61342C0020A23300A0FD3930
:101D30000000C93FB93AB2BACA9F2A3DDDFFFFBED3
:101D4000336D4C39DA82083CA0AA2ABE2DE9FC4149
:101D500004460D4616461F464FF000080C48007812
:101D6000012812D12B4622460AA10E48CDE9006770
:101D7000FEF72CFA042801D14FF001081E21094872
:101D8000FEF70BFA0020024908704046BDE8FC81CE
:101D90002C0000202533733D25662C25662C2566F6
:101DA000230000005800002010B586B00446012131
:101DB00044F20400FFF708FA4FF40070ADF8140085
:101DC00003208DF8160018208DF8170005A91C486F
:101DD000FFF707F94FF48060ADF8140004208DF888
:101DE000170005A91648FFF7FCF825208DF800001C
:101DF00003208DF801008DF8020001208DF803000A
:101E00006846FFF7A7F901940020ADF80800ADF887
:101E10000A00ADF80C00ADF810000C20ADF80E0073
:101E200001A90848FFF7A6FB012240F22551054809
:101E3000FFF77BFB01210348FFF734FB06B010BD21
:101E4000000801400038014070B506460C461546B2
:101E50000BE000BF40213046FFF730FB0028F9D0EF
:101E600021783046FFF7F7FB641C281EA5F1010519
:101E7000EFD170BD000000006E83F9A22915444E19
:101E8000D15727FCC0DD34F5999562DB4190433C86
:101E9000AB6351FEDDDDDDDDDCBBBBDDDDDDDDDDCE
:101EA000DDDDDDDD98888888888888887777777792
:101EB000778888888555555666666666666666665E
:101EC0006668888883333332222222222222222209
:101ED0002228888DF41E0008000000204800000021
:101EE000081800083C1F00084800002030040000CB
:101EF00018180008000000000000000000000000AA
:101F00000000000000A24A040000000000000000E1
:101F10000102030406070809000000000000000099
:101F20000000000000000102030401020304060790
:0C1F300008090204060800000000000080
:0400000508000131BD
:00000001FF
